{
  "_format": "hh-sol-artifact-1",
  "contractName": "MyEpicGame",
  "sourceName": "contracts/MyEpicGame.sol",
  "abi": [
    {
      "inputs": [
        {
          "internalType": "string[]",
          "name": "characterNames",
          "type": "string[]"
        },
        {
          "internalType": "string[]",
          "name": "characterImageURIs",
          "type": "string[]"
        },
        {
          "internalType": "uint256[]",
          "name": "characterArguments",
          "type": "uint256[]"
        },
        {
          "internalType": "uint256[]",
          "name": "characterPersuasion",
          "type": "uint256[]"
        },
        {
          "internalType": "string",
          "name": "bossName",
          "type": "string"
        },
        {
          "internalType": "string",
          "name": "bossImageURI",
          "type": "string"
        },
        {
          "internalType": "uint256",
          "name": "bossIgnorance",
          "type": "uint256"
        },
        {
          "internalType": "uint256",
          "name": "bossHumiliation",
          "type": "uint256"
        }
      ],
      "stateMutability": "nonpayable",
      "type": "constructor"
    },
    {
      "anonymous": false,
      "inputs": [
        {
          "indexed": true,
          "internalType": "address",
          "name": "owner",
          "type": "address"
        },
        {
          "indexed": true,
          "internalType": "address",
          "name": "approved",
          "type": "address"
        },
        {
          "indexed": true,
          "internalType": "uint256",
          "name": "tokenId",
          "type": "uint256"
        }
      ],
      "name": "Approval",
      "type": "event"
    },
    {
      "anonymous": false,
      "inputs": [
        {
          "indexed": true,
          "internalType": "address",
          "name": "owner",
          "type": "address"
        },
        {
          "indexed": true,
          "internalType": "address",
          "name": "operator",
          "type": "address"
        },
        {
          "indexed": false,
          "internalType": "bool",
          "name": "approved",
          "type": "bool"
        }
      ],
      "name": "ApprovalForAll",
      "type": "event"
    },
    {
      "anonymous": false,
      "inputs": [
        {
          "indexed": false,
          "internalType": "uint256",
          "name": "newBossHp",
          "type": "uint256"
        },
        {
          "indexed": false,
          "internalType": "uint256",
          "name": "newPlayerHp",
          "type": "uint256"
        }
      ],
      "name": "AttackComplete",
      "type": "event"
    },
    {
      "anonymous": false,
      "inputs": [
        {
          "indexed": false,
          "internalType": "address",
          "name": "sender",
          "type": "address"
        },
        {
          "indexed": false,
          "internalType": "uint256",
          "name": "tokenId",
          "type": "uint256"
        },
        {
          "indexed": false,
          "internalType": "uint256",
          "name": "characterIndex",
          "type": "uint256"
        }
      ],
      "name": "CharacterNFTMinted",
      "type": "event"
    },
    {
      "anonymous": false,
      "inputs": [
        {
          "indexed": false,
          "internalType": "address",
          "name": "sender",
          "type": "address"
        },
        {
          "indexed": false,
          "internalType": "uint256",
          "name": "timestamp",
          "type": "uint256"
        }
      ],
      "name": "PlayerDead",
      "type": "event"
    },
    {
      "anonymous": false,
      "inputs": [
        {
          "indexed": false,
          "internalType": "address",
          "name": "sender",
          "type": "address"
        },
        {
          "indexed": false,
          "internalType": "uint256",
          "name": "tokenId",
          "type": "uint256"
        }
      ],
      "name": "PlayerLevelUp",
      "type": "event"
    },
    {
      "anonymous": false,
      "inputs": [
        {
          "indexed": false,
          "internalType": "address",
          "name": "sender",
          "type": "address"
        },
        {
          "indexed": false,
          "internalType": "uint256",
          "name": "tokenId",
          "type": "uint256"
        }
      ],
      "name": "PlayerRevived",
      "type": "event"
    },
    {
      "anonymous": false,
      "inputs": [
        {
          "indexed": true,
          "internalType": "address",
          "name": "from",
          "type": "address"
        },
        {
          "indexed": true,
          "internalType": "address",
          "name": "to",
          "type": "address"
        },
        {
          "indexed": true,
          "internalType": "uint256",
          "name": "tokenId",
          "type": "uint256"
        }
      ],
      "name": "Transfer",
      "type": "event"
    },
    {
      "inputs": [
        {
          "internalType": "address",
          "name": "to",
          "type": "address"
        },
        {
          "internalType": "uint256",
          "name": "tokenId",
          "type": "uint256"
        }
      ],
      "name": "approve",
      "outputs": [],
      "stateMutability": "nonpayable",
      "type": "function"
    },
    {
      "inputs": [
        {
          "internalType": "address",
          "name": "owner",
          "type": "address"
        }
      ],
      "name": "balanceOf",
      "outputs": [
        {
          "internalType": "uint256",
          "name": "",
          "type": "uint256"
        }
      ],
      "stateMutability": "view",
      "type": "function"
    },
    {
      "inputs": [],
      "name": "bigBoss",
      "outputs": [
        {
          "internalType": "string",
          "name": "name",
          "type": "string"
        },
        {
          "internalType": "string",
          "name": "imageURI",
          "type": "string"
        },
        {
          "internalType": "uint256",
          "name": "hp",
          "type": "uint256"
        },
        {
          "internalType": "uint256",
          "name": "maxHp",
          "type": "uint256"
        },
        {
          "internalType": "uint256",
          "name": "attack",
          "type": "uint256"
        }
      ],
      "stateMutability": "view",
      "type": "function"
    },
    {
      "inputs": [],
      "name": "checkIfUserHasNFT",
      "outputs": [
        {
          "components": [
            {
              "internalType": "uint256",
              "name": "characterIndex",
              "type": "uint256"
            },
            {
              "internalType": "string",
              "name": "name",
              "type": "string"
            },
            {
              "internalType": "string",
              "name": "imageURI",
              "type": "string"
            },
            {
              "internalType": "uint256",
              "name": "hp",
              "type": "uint256"
            },
            {
              "internalType": "uint256",
              "name": "maxHp",
              "type": "uint256"
            },
            {
              "internalType": "uint256",
              "name": "attack",
              "type": "uint256"
            },
            {
              "internalType": "enum MyEpicGame.LifeState",
              "name": "lifeState",
              "type": "uint8"
            },
            {
              "internalType": "string",
              "name": "jobDescription",
              "type": "string"
            },
            {
              "internalType": "uint256",
              "name": "level",
              "type": "uint256"
            },
            {
              "internalType": "uint256",
              "name": "experience",
              "type": "uint256"
            },
            {
              "internalType": "uint256",
              "name": "maxExperience",
              "type": "uint256"
            }
          ],
          "internalType": "struct MyEpicGame.CharacterAttributes",
          "name": "",
          "type": "tuple"
        }
      ],
      "stateMutability": "view",
      "type": "function"
    },
    {
      "inputs": [],
      "name": "getAllDefaultCharacters",
      "outputs": [
        {
          "components": [
            {
              "internalType": "uint256",
              "name": "characterIndex",
              "type": "uint256"
            },
            {
              "internalType": "string",
              "name": "name",
              "type": "string"
            },
            {
              "internalType": "string",
              "name": "imageURI",
              "type": "string"
            },
            {
              "internalType": "uint256",
              "name": "hp",
              "type": "uint256"
            },
            {
              "internalType": "uint256",
              "name": "maxHp",
              "type": "uint256"
            },
            {
              "internalType": "uint256",
              "name": "attack",
              "type": "uint256"
            },
            {
              "internalType": "enum MyEpicGame.LifeState",
              "name": "lifeState",
              "type": "uint8"
            },
            {
              "internalType": "string",
              "name": "jobDescription",
              "type": "string"
            },
            {
              "internalType": "uint256",
              "name": "level",
              "type": "uint256"
            },
            {
              "internalType": "uint256",
              "name": "experience",
              "type": "uint256"
            },
            {
              "internalType": "uint256",
              "name": "maxExperience",
              "type": "uint256"
            }
          ],
          "internalType": "struct MyEpicGame.CharacterAttributes[]",
          "name": "",
          "type": "tuple[]"
        }
      ],
      "stateMutability": "view",
      "type": "function"
    },
    {
      "inputs": [
        {
          "internalType": "uint256",
          "name": "tokenId",
          "type": "uint256"
        }
      ],
      "name": "getApproved",
      "outputs": [
        {
          "internalType": "address",
          "name": "",
          "type": "address"
        }
      ],
      "stateMutability": "view",
      "type": "function"
    },
    {
      "inputs": [],
      "name": "getBigBoss",
      "outputs": [
        {
          "components": [
            {
              "internalType": "string",
              "name": "name",
              "type": "string"
            },
            {
              "internalType": "string",
              "name": "imageURI",
              "type": "string"
            },
            {
              "internalType": "uint256",
              "name": "hp",
              "type": "uint256"
            },
            {
              "internalType": "uint256",
              "name": "maxHp",
              "type": "uint256"
            },
            {
              "internalType": "uint256",
              "name": "attack",
              "type": "uint256"
            }
          ],
          "internalType": "struct MyEpicGame.BigBoss",
          "name": "",
          "type": "tuple"
        }
      ],
      "stateMutability": "view",
      "type": "function"
    },
    {
      "inputs": [
        {
          "internalType": "address",
          "name": "owner",
          "type": "address"
        },
        {
          "internalType": "address",
          "name": "operator",
          "type": "address"
        }
      ],
      "name": "isApprovedForAll",
      "outputs": [
        {
          "internalType": "bool",
          "name": "",
          "type": "bool"
        }
      ],
      "stateMutability": "view",
      "type": "function"
    },
    {
      "inputs": [
        {
          "internalType": "uint256",
          "name": "_characterIndex",
          "type": "uint256"
        }
      ],
      "name": "mintCharacterNFT",
      "outputs": [],
      "stateMutability": "nonpayable",
      "type": "function"
    },
    {
      "inputs": [],
      "name": "name",
      "outputs": [
        {
          "internalType": "string",
          "name": "",
          "type": "string"
        }
      ],
      "stateMutability": "view",
      "type": "function"
    },
    {
      "inputs": [
        {
          "internalType": "uint256",
          "name": "",
          "type": "uint256"
        }
      ],
      "name": "nftHolderAttributes",
      "outputs": [
        {
          "internalType": "uint256",
          "name": "characterIndex",
          "type": "uint256"
        },
        {
          "internalType": "string",
          "name": "name",
          "type": "string"
        },
        {
          "internalType": "string",
          "name": "imageURI",
          "type": "string"
        },
        {
          "internalType": "uint256",
          "name": "hp",
          "type": "uint256"
        },
        {
          "internalType": "uint256",
          "name": "maxHp",
          "type": "uint256"
        },
        {
          "internalType": "uint256",
          "name": "attack",
          "type": "uint256"
        },
        {
          "internalType": "enum MyEpicGame.LifeState",
          "name": "lifeState",
          "type": "uint8"
        },
        {
          "internalType": "string",
          "name": "jobDescription",
          "type": "string"
        },
        {
          "internalType": "uint256",
          "name": "level",
          "type": "uint256"
        },
        {
          "internalType": "uint256",
          "name": "experience",
          "type": "uint256"
        },
        {
          "internalType": "uint256",
          "name": "maxExperience",
          "type": "uint256"
        }
      ],
      "stateMutability": "view",
      "type": "function"
    },
    {
      "inputs": [
        {
          "internalType": "address",
          "name": "",
          "type": "address"
        }
      ],
      "name": "nftHolders",
      "outputs": [
        {
          "internalType": "uint256",
          "name": "",
          "type": "uint256"
        }
      ],
      "stateMutability": "view",
      "type": "function"
    },
    {
      "inputs": [
        {
          "internalType": "uint256",
          "name": "tokenId",
          "type": "uint256"
        }
      ],
      "name": "ownerOf",
      "outputs": [
        {
          "internalType": "address",
          "name": "",
          "type": "address"
        }
      ],
      "stateMutability": "view",
      "type": "function"
    },
    {
      "inputs": [],
      "name": "requestSalaryIncrease",
      "outputs": [],
      "stateMutability": "nonpayable",
      "type": "function"
    },
    {
      "inputs": [],
      "name": "reviveCharacter",
      "outputs": [],
      "stateMutability": "nonpayable",
      "type": "function"
    },
    {
      "inputs": [
        {
          "internalType": "address",
          "name": "from",
          "type": "address"
        },
        {
          "internalType": "address",
          "name": "to",
          "type": "address"
        },
        {
          "internalType": "uint256",
          "name": "tokenId",
          "type": "uint256"
        }
      ],
      "name": "safeTransferFrom",
      "outputs": [],
      "stateMutability": "nonpayable",
      "type": "function"
    },
    {
      "inputs": [
        {
          "internalType": "address",
          "name": "from",
          "type": "address"
        },
        {
          "internalType": "address",
          "name": "to",
          "type": "address"
        },
        {
          "internalType": "uint256",
          "name": "tokenId",
          "type": "uint256"
        },
        {
          "internalType": "bytes",
          "name": "_data",
          "type": "bytes"
        }
      ],
      "name": "safeTransferFrom",
      "outputs": [],
      "stateMutability": "nonpayable",
      "type": "function"
    },
    {
      "inputs": [],
      "name": "setAliveState",
      "outputs": [],
      "stateMutability": "nonpayable",
      "type": "function"
    },
    {
      "inputs": [
        {
          "internalType": "address",
          "name": "operator",
          "type": "address"
        },
        {
          "internalType": "bool",
          "name": "approved",
          "type": "bool"
        }
      ],
      "name": "setApprovalForAll",
      "outputs": [],
      "stateMutability": "nonpayable",
      "type": "function"
    },
    {
      "inputs": [],
      "name": "setDeadState",
      "outputs": [],
      "stateMutability": "nonpayable",
      "type": "function"
    },
    {
      "inputs": [],
      "name": "setWorkState",
      "outputs": [],
      "stateMutability": "nonpayable",
      "type": "function"
    },
    {
      "inputs": [
        {
          "internalType": "bytes4",
          "name": "interfaceId",
          "type": "bytes4"
        }
      ],
      "name": "supportsInterface",
      "outputs": [
        {
          "internalType": "bool",
          "name": "",
          "type": "bool"
        }
      ],
      "stateMutability": "view",
      "type": "function"
    },
    {
      "inputs": [],
      "name": "symbol",
      "outputs": [
        {
          "internalType": "string",
          "name": "",
          "type": "string"
        }
      ],
      "stateMutability": "view",
      "type": "function"
    },
    {
      "inputs": [
        {
          "internalType": "uint256",
          "name": "_tokenId",
          "type": "uint256"
        }
      ],
      "name": "tokenURI",
      "outputs": [
        {
          "internalType": "string",
          "name": "",
          "type": "string"
        }
      ],
      "stateMutability": "view",
      "type": "function"
    },
    {
      "inputs": [
        {
          "internalType": "address",
          "name": "from",
          "type": "address"
        },
        {
          "internalType": "address",
          "name": "to",
          "type": "address"
        },
        {
          "internalType": "uint256",
          "name": "tokenId",
          "type": "uint256"
        }
      ],
      "name": "transferFrom",
      "outputs": [],
      "stateMutability": "nonpayable",
      "type": "function"
    }
  ],
  "bytecode": "0x60806040526040518060a001604052806040518060400160405280600681526020017f6a756e696f72000000000000000000000000000000000000000000000000000081525081526020016040518060400160405280600881526020017f616476616e63656400000000000000000000000000000000000000000000000081525081526020016040518060400160405280600681526020017f73656e696f72000000000000000000000000000000000000000000000000000081525081526020016040518060400160405280600c81526020017f70726f66657373696f6e616c000000000000000000000000000000000000000081525081526020016040518060400160405280600681526020017f657870657274000000000000000000000000000000000000000000000000000081525081525060069060056200014692919062000e7b565b506040518061014001604052806040518060400160405280600781526020017f747261696e65650000000000000000000000000000000000000000000000000081525081526020016040518060400160405280600a81526020017f61707072656e746963650000000000000000000000000000000000000000000081525081526020016040518060400160405280601081526020017f74656d706f72617279206a6f626265720000000000000000000000000000000081525081526020016040518060400160405280600881526020017f656d706c6f79656500000000000000000000000000000000000000000000000081525081526020016040518060400160405280601181526020017f746f70696320726573706f6e7369626c6500000000000000000000000000000081525081526020016040518060400160405280600b81526020017f7465616d206c656164657200000000000000000000000000000000000000000081525081526020016040518060400160405280601081526020017f6c6f776572204d616e6167656d656e740000000000000000000000000000000081525081526020016040518060400160405280601081526020017f7570706572204d616e6167656d656e740000000000000000000000000000000081525081526020016040518060400160405280600881526020017f6469726563746f7200000000000000000000000000000000000000000000000081525081526020016040518060400160405280600981526020017f6578656375746976650000000000000000000000000000000000000000000000815250815250600b90600a620003b192919062000ed5565b50348015620003bf57600080fd5b506040516200766f3803806200766f8339818101604052810190620003e591906200120a565b6040518060400160405280600681526020017f576f726b657200000000000000000000000000000000000000000000000000008152506040518060400160405280600681526020017f574f524b4552000000000000000000000000000000000000000000000000000081525081600090805190602001906200046992919062000f2f565b5080600190805190602001906200048292919062000f2f565b5050506040518060a001604052808581526020018481526020018381526020018381526020018281525060176000820151816000019080519060200190620004cc92919062000f2f565b506020820151816001019080519060200190620004eb92919062000f2f565b50604082015181600201556060820151816003015560808201518160040155905050620005ee6040518060400160405280601981526020017f446f6e6520696e697469616c697a696e6720626f73732025730000000000000081525060176000018054620005599062001672565b80601f0160208091040260200160405190810160405280929190818152602001828054620005879062001672565b8015620005d85780601f10620005ac57610100808354040283529160200191620005d8565b820191906000526020600020905b815481529060010190602001808311620005ba57829003601f168201915b505050505062000ced60201b620029391760201c565b60005b885181101562000cc75760166040518061016001604052808381526020018b848151811062000649577f4e487b7100000000000000000000000000000000000000000000000000000000600052603260045260246000fd5b602002602001015181526020018a848151811062000690577f4e487b7100000000000000000000000000000000000000000000000000000000600052603260045260246000fd5b60200260200101518152602001898481518110620006d7577f4e487b7100000000000000000000000000000000000000000000000000000000600052603260045260246000fd5b602002602001015181526020018984815181106200071e577f4e487b7100000000000000000000000000000000000000000000000000000000600052603260045260246000fd5b6020026020010151815260200188848151811062000765577f4e487b7100000000000000000000000000000000000000000000000000000000600052603260045260246000fd5b6020026020010151815260200160006002811115620007ad577f4e487b7100000000000000000000000000000000000000000000000000000000600052602160045260246000fd5b81526020016040518060400160405280600681526020017f6a756e696f7200000000000000000000000000000000000000000000000000008152506040518060400160405280600781526020017f747261696e656500000000000000000000000000000000000000000000000000815250604051602001620008319291906200142e565b60405160208183030381529060405281526020016001815260200160008152602001601e81525090806001815401808255809150506001900390600052602060002090600b0201600090919091909150600082015181600001556020820151816001019080519060200190620008a992919062000f2f565b506040820151816002019080519060200190620008c892919062000f2f565b50606082015181600301556080820151816004015560a0820151816005015560c08201518160060160006101000a81548160ff0219169083600281111562000939577f4e487b7100000000000000000000000000000000000000000000000000000000600052602160045260246000fd5b021790555060e08201518160070190805190602001906200095c92919062000f2f565b506101008201518160080155610120820151816009015561014082015181600a01555050600060168281548110620009bd577f4e487b7100000000000000000000000000000000000000000000000000000000600052603260045260246000fd5b90600052602060002090600b02016040518061016001604052908160008201548152602001600182018054620009f39062001672565b80601f016020809104026020016040519081016040528092919081815260200182805462000a219062001672565b801562000a725780601f1062000a465761010080835404028352916020019162000a72565b820191906000526020600020905b81548152906001019060200180831162000a5457829003601f168201915b5050505050815260200160028201805462000a8d9062001672565b80601f016020809104026020016040519081016040528092919081815260200182805462000abb9062001672565b801562000b0c5780601f1062000ae05761010080835404028352916020019162000b0c565b820191906000526020600020905b81548152906001019060200180831162000aee57829003601f168201915b505050505081526020016003820154815260200160048201548152602001600582015481526020016006820160009054906101000a900460ff16600281111562000b7f577f4e487b7100000000000000000000000000000000000000000000000000000000600052602160045260246000fd5b600281111562000bb8577f4e487b7100000000000000000000000000000000000000000000000000000000600052602160045260246000fd5b815260200160078201805462000bce9062001672565b80601f016020809104026020016040519081016040528092919081815260200182805462000bfc9062001672565b801562000c4d5780601f1062000c215761010080835404028352916020019162000c4d565b820191906000526020600020905b81548152906001019060200180831162000c2f57829003601f168201915b505050505081526020016008820154815260200160098201548152602001600a82015481525050905062000caf60405180606001604052806026815260200162007649602691398260200151836060015162000d9360201b620029d51760201c565b5060018162000cbf9190620015d5565b9050620005f1565b5062000cdf601562000e3c60201b62002a741760201c565b505050505050505062001760565b62000d8f828260405160240162000d0692919062001463565b6040516020818303038152906040527f4b5c4277000000000000000000000000000000000000000000000000000000007bffffffffffffffffffffffffffffffffffffffffffffffffffffffff19166020820180517bffffffffffffffffffffffffffffffffffffffffffffffffffffffff838183161783525050505062000e5260201b60201c565b5050565b62000e3783838360405160240162000dae939291906200149e565b6040516020818303038152906040527ff362ca59000000000000000000000000000000000000000000000000000000007bffffffffffffffffffffffffffffffffffffffffffffffffffffffff19166020820180517bffffffffffffffffffffffffffffffffffffffffffffffffffffffff838183161783525050505062000e5260201b60201c565b505050565b6001816000016000828254019250508190555050565b60008151905060006a636f6e736f6c652e6c6f679050602083016000808483855afa5050505050565b826005810192821562000ec2579160200282015b8281111562000ec157825182908051906020019062000eb092919062000f2f565b509160200191906001019062000e8f565b5b50905062000ed1919062000fc0565b5090565b82600a810192821562000f1c579160200282015b8281111562000f1b57825182908051906020019062000f0a92919062000f2f565b509160200191906001019062000ee9565b5b50905062000f2b919062000fc0565b5090565b82805462000f3d9062001672565b90600052602060002090601f01602090048101928262000f61576000855562000fad565b82601f1062000f7c57805160ff191683800117855562000fad565b8280016001018555821562000fad579182015b8281111562000fac57825182559160200191906001019062000f8f565b5b50905062000fbc919062000fe8565b5090565b5b8082111562000fe4576000818162000fda919062001007565b5060010162000fc1565b5090565b5b808211156200100357600081600090555060010162000fe9565b5090565b508054620010159062001672565b6000825580601f106200102957506200104a565b601f01602090049060005260206000209081019062001049919062000fe8565b5b50565b6000620010646200105e846200151d565b620014e9565b9050808382526020820190508260005b85811015620010a857815185016200108d8882620011c6565b84526020840193506020830192505060018101905062001074565b5050509392505050565b6000620010c9620010c3846200154c565b620014e9565b90508083825260208201905082856020860282011115620010e957600080fd5b60005b858110156200111d5781620011028882620011f3565b845260208401935060208301925050600181019050620010ec565b5050509392505050565b60006200113e62001138846200157b565b620014e9565b9050828152602081018484840111156200115757600080fd5b620011648482856200163c565b509392505050565b600082601f8301126200117e57600080fd5b8151620011908482602086016200104d565b91505092915050565b600082601f830112620011ab57600080fd5b8151620011bd848260208601620010b2565b91505092915050565b600082601f830112620011d857600080fd5b8151620011ea84826020860162001127565b91505092915050565b600081519050620012048162001746565b92915050565b600080600080600080600080610100898b0312156200122857600080fd5b600089015167ffffffffffffffff8111156200124357600080fd5b620012518b828c016200116c565b985050602089015167ffffffffffffffff8111156200126f57600080fd5b6200127d8b828c016200116c565b975050604089015167ffffffffffffffff8111156200129b57600080fd5b620012a98b828c0162001199565b965050606089015167ffffffffffffffff811115620012c757600080fd5b620012d58b828c0162001199565b955050608089015167ffffffffffffffff811115620012f357600080fd5b620013018b828c01620011c6565b94505060a089015167ffffffffffffffff8111156200131f57600080fd5b6200132d8b828c01620011c6565b93505060c0620013408b828c01620011f3565b92505060e0620013538b828c01620011f3565b9150509295985092959890939650565b60006200137082620015ae565b6200137c8185620015b9565b93506200138e8185602086016200163c565b620013998162001735565b840191505092915050565b6000620013b182620015ae565b620013bd8185620015ca565b9350620013cf8185602086016200163c565b80840191505092915050565b6000620013ea600183620015ca565b91507f20000000000000000000000000000000000000000000000000000000000000006000830152600182019050919050565b620014288162001632565b82525050565b60006200143c8285620013a4565b91506200144982620013db565b9150620014578284620013a4565b91508190509392505050565b600060408201905081810360008301526200147f818562001363565b9050818103602083015262001495818462001363565b90509392505050565b60006060820190508181036000830152620014ba818662001363565b90508181036020830152620014d0818562001363565b9050620014e160408301846200141d565b949350505050565b6000604051905081810181811067ffffffffffffffff8211171562001513576200151262001706565b5b8060405250919050565b600067ffffffffffffffff8211156200153b576200153a62001706565b5b602082029050602081019050919050565b600067ffffffffffffffff8211156200156a576200156962001706565b5b602082029050602081019050919050565b600067ffffffffffffffff82111562001599576200159862001706565b5b601f19601f8301169050602081019050919050565b600081519050919050565b600082825260208201905092915050565b600081905092915050565b6000620015e28262001632565b9150620015ef8362001632565b9250827fffffffffffffffffffffffffffffffffffffffffffffffffffffffffffffffff03821115620016275762001626620016a8565b5b828201905092915050565b6000819050919050565b60005b838110156200165c5780820151818401526020810190506200163f565b838111156200166c576000848401525b50505050565b600060028204905060018216806200168b57607f821691505b60208210811415620016a257620016a1620016d7565b5b50919050565b7f4e487b7100000000000000000000000000000000000000000000000000000000600052601160045260246000fd5b7f4e487b7100000000000000000000000000000000000000000000000000000000600052602260045260246000fd5b7f4e487b7100000000000000000000000000000000000000000000000000000000600052604160045260246000fd5b6000601f19601f8301169050919050565b620017518162001632565b81146200175d57600080fd5b50565b615ed980620017706000396000f3fe608060405234801561001057600080fd5b50600436106101735760003560e01c806395d89b41116100de578063b88d4fde11610097578063c87b56dd11610071578063c87b56dd146103fa578063c8cf27f41461042a578063e985e9c514610448578063f8b81ef71461047857610173565b8063b88d4fde146103b6578063b93dfd0d146103d2578063b953084e146103dc57610173565b806395d89b411461030c57806398da4c951461032a578063a22cb46514610364578063a5d88f9614610380578063a9c326791461038a578063b45adac1146103ac57610173565b806323b872dd1161013057806323b872dd1461023a5780633a3185d41461025657806342842e0e146102605780636352211e1461027c57806370a08231146102ac5780637df124a1146102dc57610173565b806301ffc9a7146101785780630665f961146101a857806306fdde03146101c6578063081812fc146101e4578063095ea7b3146102145780631b8237b014610230575b600080fd5b610192600480360381019061018d91906141cc565b610494565b60405161019f9190615372565b60405180910390f35b6101b0610576565b6040516101bd919061571a565b60405180910390f35b6101ce6106d2565b6040516101db919061538d565b60405180910390f35b6101fe60048036038101906101f9919061421e565b610764565b60405161020b9190615289565b60405180910390f35b61022e60048036038101906102299190614190565b6107e9565b005b610238610901565b005b610254600480360381019061024f919061408a565b6109b3565b005b61025e610a13565b005b61027a6004803603810190610275919061408a565b610e8e565b005b6102966004803603810190610291919061421e565b610eae565b6040516102a39190615289565b60405180910390f35b6102c660048036038101906102c19190614025565b610f60565b6040516102d3919061575e565b60405180910390f35b6102f660048036038101906102f19190614025565b611018565b604051610303919061575e565b60405180910390f35b610314611030565b604051610321919061538d565b60405180910390f35b610344600480360381019061033f919061421e565b6110c2565b60405161035b9b9a99989796959493929190615779565b60405180910390f35b61037e60048036038101906103799190614154565b6112c1565b005b610388611442565b005b6103926114f4565b6040516103a395949392919061542b565b60405180910390f35b6103b4611628565b005b6103d060048036038101906103cb91906140d9565b61183f565b005b6103da6118a1565b005b6103e4611953565b6040516103f19190615350565b60405180910390f35b610414600480360381019061040f919061421e565b611c36565b604051610421919061538d565b60405180910390f35b610432612027565b60405161043f919061573c565b60405180910390f35b610462600480360381019061045d919061404e565b612337565b60405161046f9190615372565b60405180910390f35b610492600480360381019061048d919061421e565b6123cb565b005b60007f80ac58cd000000000000000000000000000000000000000000000000000000007bffffffffffffffffffffffffffffffffffffffffffffffffffffffff1916827bffffffffffffffffffffffffffffffffffffffffffffffffffffffff1916148061055f57507f5b5e139f000000000000000000000000000000000000000000000000000000007bffffffffffffffffffffffffffffffffffffffffffffffffffffffff1916827bffffffffffffffffffffffffffffffffffffffffffffffffffffffff1916145b8061056f575061056e82612a8a565b5b9050919050565b61057e613df0565b60176040518060a001604052908160008201805461059b90615b40565b80601f01602080910402602001604051908101604052809291908181526020018280546105c790615b40565b80156106145780601f106105e957610100808354040283529160200191610614565b820191906000526020600020905b8154815290600101906020018083116105f757829003601f168201915b5050505050815260200160018201805461062d90615b40565b80601f016020809104026020016040519081016040528092919081815260200182805461065990615b40565b80156106a65780601f1061067b576101008083540402835291602001916106a6565b820191906000526020600020905b81548152906001019060200180831161068957829003601f168201915b505050505081526020016002820154815260200160038201548152602001600482015481525050905090565b6060600080546106e190615b40565b80601f016020809104026020016040519081016040528092919081815260200182805461070d90615b40565b801561075a5780601f1061072f5761010080835404028352916020019161075a565b820191906000526020600020905b81548152906001019060200180831161073d57829003601f168201915b5050505050905090565b600061076f82612af4565b6107ae576040517f08c379a00000000000000000000000000000000000000000000000000000000081526004016107a59061569a565b60405180910390fd5b6004600083815260200190815260200160002060009054906101000a900473ffffffffffffffffffffffffffffffffffffffff169050919050565b60006107f482610eae565b90508073ffffffffffffffffffffffffffffffffffffffff168373ffffffffffffffffffffffffffffffffffffffff161415610865576040517f08c379a000000000000000000000000000000000000000000000000000000000815260040161085c906156da565b60405180910390fd5b8073ffffffffffffffffffffffffffffffffffffffff16610884612b60565b73ffffffffffffffffffffffffffffffffffffffff1614806108b357506108b2816108ad612b60565b612337565b5b6108f2576040517f08c379a00000000000000000000000000000000000000000000000000000000081526004016108e9906155fa565b60405180910390fd5b6108fc8383612b68565b505050565b6000601c60003373ffffffffffffffffffffffffffffffffffffffff1673ffffffffffffffffffffffffffffffffffffffff1681526020019081526020016000205490506000601d6000838152602001908152602001600020905060008160060160006101000a81548160ff021916908360028111156109aa577f4e487b7100000000000000000000000000000000000000000000000000000000600052602160045260246000fd5b02179055505050565b6109c46109be612b60565b82612c21565b610a03576040517f08c379a00000000000000000000000000000000000000000000000000000000081526004016109fa906156fa565b60405180910390fd5b610a0e838383612cff565b505050565b6000601c60003373ffffffffffffffffffffffffffffffffffffffff1673ffffffffffffffffffffffffffffffffffffffff1681526020019081526020016000205490506000601d60008381526020019081526020016000209050610b1c6040518060600160405280602e8152602001615e76602e9139826001018054610a9990615b40565b80601f0160208091040260200160405190810160405280929190818152602001828054610ac590615b40565b8015610b125780601f10610ae757610100808354040283529160200191610b12565b820191906000526020600020905b815481529060010190602001808311610af557829003601f168201915b5050505050612939565b610be86040518060400160405280600f81526020017f2573206973206c697374656e696e67000000000000000000000000000000000081525060176000018054610b6590615b40565b80601f0160208091040260200160405190810160405280929190818152602001828054610b9190615b40565b8015610bde5780601f10610bb357610100808354040283529160200191610bde565b820191906000526020600020905b815481529060010190602001808311610bc157829003601f168201915b5050505050612939565b6000816003015411610c2f576040517f08c379a0000000000000000000000000000000000000000000000000000000008152600401610c269061567a565b60405180910390fd5b600060176002015411610c77576040517f08c379a0000000000000000000000000000000000000000000000000000000008152600401610c6e906154fa565b60405180910390fd5b806005015460176002015411610c97576000601760020181905550610cb6565b8060050154601760020154610cac9190615a31565b6017600201819055505b610cdd604051806060016040528060258152602001615d9060259139601760020154612f5b565b601760040154816003015411610d955760008160030181905550610cff6118a1565b610d576040518060400160405280601981526020017f506c6179657220697320696e206c696665737461746520257300000000000000815250610d528360060160009054906101000a900460ff16612ff7565b612939565b7fad2e306bf65961a476a48cc28cb884a8907a38a508bd75b3bf8983a62142e3a23342604051610d889291906152f0565b60405180910390a1610db3565b6017600401548160030154610daa9190615a31565b81600301819055505b610dd9604051806060016040528060288152602001615df5602891398260030154612f5b565b60148160090154610dea9190615950565b8160090181905550610e306040518060400160405280602081526020017f436865636b206966206c6576656c20757020697320706f737369626c652e2e2e815250613232565b80600a0154816009015410610e4857610e476132cb565b5b7f838ab28464562786a6c4ab2311964b82fa60bd9b14aa7e856af1f3f18d41a4146017600201548260030154604051610e82929190615839565b60405180910390a15050565b610ea98383836040518060200160405280600081525061183f565b505050565b6000806002600084815260200190815260200160002060009054906101000a900473ffffffffffffffffffffffffffffffffffffffff169050600073ffffffffffffffffffffffffffffffffffffffff168173ffffffffffffffffffffffffffffffffffffffff161415610f57576040517f08c379a0000000000000000000000000000000000000000000000000000000008152600401610f4e9061563a565b60405180910390fd5b80915050919050565b60008073ffffffffffffffffffffffffffffffffffffffff168273ffffffffffffffffffffffffffffffffffffffff161415610fd1576040517f08c379a0000000000000000000000000000000000000000000000000000000008152600401610fc89061561a565b60405180910390fd5b600360008373ffffffffffffffffffffffffffffffffffffffff1673ffffffffffffffffffffffffffffffffffffffff168152602001908152602001600020549050919050565b601c6020528060005260406000206000915090505481565b60606001805461103f90615b40565b80601f016020809104026020016040519081016040528092919081815260200182805461106b90615b40565b80156110b85780601f1061108d576101008083540402835291602001916110b8565b820191906000526020600020905b81548152906001019060200180831161109b57829003601f168201915b5050505050905090565b601d6020528060005260406000206000915090508060000154908060010180546110eb90615b40565b80601f016020809104026020016040519081016040528092919081815260200182805461111790615b40565b80156111645780601f1061113957610100808354040283529160200191611164565b820191906000526020600020905b81548152906001019060200180831161114757829003601f168201915b50505050509080600201805461117990615b40565b80601f01602080910402602001604051908101604052809291908181526020018280546111a590615b40565b80156111f25780601f106111c7576101008083540402835291602001916111f2565b820191906000526020600020905b8154815290600101906020018083116111d557829003601f168201915b5050505050908060030154908060040154908060050154908060060160009054906101000a900460ff169080600701805461122c90615b40565b80601f016020809104026020016040519081016040528092919081815260200182805461125890615b40565b80156112a55780601f1061127a576101008083540402835291602001916112a5565b820191906000526020600020905b81548152906001019060200180831161128857829003601f168201915b50505050509080600801549080600901549080600a015490508b565b6112c9612b60565b73ffffffffffffffffffffffffffffffffffffffff168273ffffffffffffffffffffffffffffffffffffffff161415611337576040517f08c379a000000000000000000000000000000000000000000000000000000000815260040161132e9061559a565b60405180910390fd5b8060056000611344612b60565b73ffffffffffffffffffffffffffffffffffffffff1673ffffffffffffffffffffffffffffffffffffffff16815260200190815260200160002060008473ffffffffffffffffffffffffffffffffffffffff1673ffffffffffffffffffffffffffffffffffffffff16815260200190815260200160002060006101000a81548160ff0219169083151502179055508173ffffffffffffffffffffffffffffffffffffffff166113f1612b60565b73ffffffffffffffffffffffffffffffffffffffff167f17307eab39ab6107e8899845ad3d59bd9653f200f220920489ca2b5937696c31836040516114369190615372565b60405180910390a35050565b6000601c60003373ffffffffffffffffffffffffffffffffffffffff1673ffffffffffffffffffffffffffffffffffffffff1681526020019081526020016000205490506000601d6000838152602001908152602001600020905060028160060160006101000a81548160ff021916908360028111156114eb577f4e487b7100000000000000000000000000000000000000000000000000000000600052602160045260246000fd5b02179055505050565b601780600001805461150590615b40565b80601f016020809104026020016040519081016040528092919081815260200182805461153190615b40565b801561157e5780601f106115535761010080835404028352916020019161157e565b820191906000526020600020905b81548152906001019060200180831161156157829003601f168201915b50505050509080600101805461159390615b40565b80601f01602080910402602001604051908101604052809291908181526020018280546115bf90615b40565b801561160c5780601f106115e15761010080835404028352916020019161160c565b820191906000526020600020905b8154815290600101906020018083116115ef57829003601f168201915b5050505050908060020154908060030154908060040154905085565b6000601c60003373ffffffffffffffffffffffffffffffffffffffff1673ffffffffffffffffffffffffffffffffffffffff1681526020019081526020016000205490506000601d6000838152602001908152602001600020905060008160030154146116ca576040517f08c379a00000000000000000000000000000000000000000000000000000000081526004016116c19061555a565b60405180910390fd5b6117956040518060400160405280601881526020017f526576697665206f6620257320696e2070726f6772657373000000000000000081525082600101805461171290615b40565b80601f016020809104026020016040519081016040528092919081815260200182805461173e90615b40565b801561178b5780601f106117605761010080835404028352916020019161178b565b820191906000526020600020905b81548152906001019060200180831161176e57829003601f168201915b5050505050612939565b806004015481600301819055506117aa610901565b6118026040518060400160405280601981526020017f506c6179657220697320696e206c6966657374617465202573000000000000008152506117fd8360060160009054906101000a900460ff16612ff7565b612939565b7f9b9bc6bdc899cb8e3a6246997aaa1528b6ff4ce2ab4e409612d0adff427837a133836040516118339291906152f0565b60405180910390a15050565b61185061184a612b60565b83612c21565b61188f576040517f08c379a0000000000000000000000000000000000000000000000000000000008152600401611886906156fa565b60405180910390fd5b61189b84848484613530565b50505050565b6000601c60003373ffffffffffffffffffffffffffffffffffffffff1673ffffffffffffffffffffffffffffffffffffffff1681526020019081526020016000205490506000601d6000838152602001908152602001600020905060018160060160006101000a81548160ff0219169083600281111561194a577f4e487b7100000000000000000000000000000000000000000000000000000000600052602160045260246000fd5b02179055505050565b60606016805480602002602001604051908101604052809291908181526020016000905b82821015611c2d57838290600052602060002090600b020160405180610160016040529081600082015481526020016001820180546119b590615b40565b80601f01602080910402602001604051908101604052809291908181526020018280546119e190615b40565b8015611a2e5780601f10611a0357610100808354040283529160200191611a2e565b820191906000526020600020905b815481529060010190602001808311611a1157829003601f168201915b50505050508152602001600282018054611a4790615b40565b80601f0160208091040260200160405190810160405280929190818152602001828054611a7390615b40565b8015611ac05780601f10611a9557610100808354040283529160200191611ac0565b820191906000526020600020905b815481529060010190602001808311611aa357829003601f168201915b505050505081526020016003820154815260200160048201548152602001600582015481526020016006820160009054906101000a900460ff166002811115611b32577f4e487b7100000000000000000000000000000000000000000000000000000000600052602160045260246000fd5b6002811115611b6a577f4e487b7100000000000000000000000000000000000000000000000000000000600052602160045260246000fd5b8152602001600782018054611b7e90615b40565b80601f0160208091040260200160405190810160405280929190818152602001828054611baa90615b40565b8015611bf75780601f10611bcc57610100808354040283529160200191611bf7565b820191906000526020600020905b815481529060010190602001808311611bda57829003601f168201915b505050505081526020016008820154815260200160098201548152602001600a8201548152505081526020019060010190611977565b50505050905090565b60606000601d60008481526020019081526020016000206040518061016001604052908160008201548152602001600182018054611c7390615b40565b80601f0160208091040260200160405190810160405280929190818152602001828054611c9f90615b40565b8015611cec5780601f10611cc157610100808354040283529160200191611cec565b820191906000526020600020905b815481529060010190602001808311611ccf57829003601f168201915b50505050508152602001600282018054611d0590615b40565b80601f0160208091040260200160405190810160405280929190818152602001828054611d3190615b40565b8015611d7e5780601f10611d5357610100808354040283529160200191611d7e565b820191906000526020600020905b815481529060010190602001808311611d6157829003601f168201915b505050505081526020016003820154815260200160048201548152602001600582015481526020016006820160009054906101000a900460ff166002811115611df0577f4e487b7100000000000000000000000000000000000000000000000000000000600052602160045260246000fd5b6002811115611e28577f4e487b7100000000000000000000000000000000000000000000000000000000600052602160045260246000fd5b8152602001600782018054611e3c90615b40565b80601f0160208091040260200160405190810160405280929190818152602001828054611e6890615b40565b8015611eb55780601f10611e8a57610100808354040283529160200191611eb5565b820191906000526020600020905b815481529060010190602001808311611e9857829003601f168201915b505050505081526020016008820154815260200160098201548152602001600a8201548152505090506000611eed826060015161358c565b90506000611efe836080015161358c565b90506000611f0f8460a0015161358c565b90506000611f2185610120015161358c565b90506000611f3386610140015161358c565b90506000611f4587610100015161358c565b90506000611f568860c00151612ff7565b905060008860e0015190506000611faf8a60200151611f748e61358c565b8c60400151878a8a8f8f8f8c8c604051602001611f9b9b9a9998979695949392919061514a565b604051602081830303815290604052613739565b9050611ff06040518060400160405280600581526020017f4a534f4e3a00000000000000000000000000000000000000000000000000000081525082612939565b6000816040516020016120039190615267565b6040516020818303038152906040529050809b505050505050505050505050919050565b61202f613e1f565b6000601c60003373ffffffffffffffffffffffffffffffffffffffff1673ffffffffffffffffffffffffffffffffffffffff168152602001908152602001600020549050600081111561232657601d600082815260200190815260200160002060405180610160016040529081600082015481526020016001820180546120b590615b40565b80601f01602080910402602001604051908101604052809291908181526020018280546120e190615b40565b801561212e5780601f106121035761010080835404028352916020019161212e565b820191906000526020600020905b81548152906001019060200180831161211157829003601f168201915b5050505050815260200160028201805461214790615b40565b80601f016020809104026020016040519081016040528092919081815260200182805461217390615b40565b80156121c05780601f10612195576101008083540402835291602001916121c0565b820191906000526020600020905b8154815290600101906020018083116121a357829003601f168201915b505050505081526020016003820154815260200160048201548152602001600582015481526020016006820160009054906101000a900460ff166002811115612232577f4e487b7100000000000000000000000000000000000000000000000000000000600052602160045260246000fd5b600281111561226a577f4e487b7100000000000000000000000000000000000000000000000000000000600052602160045260246000fd5b815260200160078201805461227e90615b40565b80601f01602080910402602001604051908101604052809291908181526020018280546122aa90615b40565b80156122f75780601f106122cc576101008083540402835291602001916122f7565b820191906000526020600020905b8154815290600101906020018083116122da57829003601f168201915b505050505081526020016008820154815260200160098201548152602001600a82015481525050915050612334565b61232e613e1f565b80925050505b90565b6000600560008473ffffffffffffffffffffffffffffffffffffffff1673ffffffffffffffffffffffffffffffffffffffff16815260200190815260200160002060008373ffffffffffffffffffffffffffffffffffffffff1673ffffffffffffffffffffffffffffffffffffffff16815260200190815260200160002060009054906101000a900460ff16905092915050565b60006123d760156138f7565b90506123e33382613905565b6040518061016001604052808381526020016016848154811061242f577f4e487b7100000000000000000000000000000000000000000000000000000000600052603260045260246000fd5b90600052602060002090600b0201600101805461244b90615b40565b80601f016020809104026020016040519081016040528092919081815260200182805461247790615b40565b80156124c45780601f10612499576101008083540402835291602001916124c4565b820191906000526020600020905b8154815290600101906020018083116124a757829003601f168201915b5050505050815260200160168481548110612508577f4e487b7100000000000000000000000000000000000000000000000000000000600052603260045260246000fd5b90600052602060002090600b0201600201805461252490615b40565b80601f016020809104026020016040519081016040528092919081815260200182805461255090615b40565b801561259d5780601f106125725761010080835404028352916020019161259d565b820191906000526020600020905b81548152906001019060200180831161258057829003601f168201915b50505050508152602001601684815481106125e1577f4e487b7100000000000000000000000000000000000000000000000000000000600052603260045260246000fd5b90600052602060002090600b020160030154815260200160168481548110612632577f4e487b7100000000000000000000000000000000000000000000000000000000600052603260045260246000fd5b90600052602060002090600b020160040154815260200160168481548110612683577f4e487b7100000000000000000000000000000000000000000000000000000000600052603260045260246000fd5b90600052602060002090600b0201600501548152602001600060028111156126d4577f4e487b7100000000000000000000000000000000000000000000000000000000600052602160045260246000fd5b81526020016040518060400160405280600681526020017f6a756e696f7200000000000000000000000000000000000000000000000000008152506040518060400160405280600781526020017f747261696e65650000000000000000000000000000000000000000000000000081525060405160200161275692919061511b565b60405160208183030381529060405281526020016001815260200160008152602001601e815250601d60008381526020019081526020016000206000820151816000015560208201518160010190805190602001906127b6929190613eb1565b5060408201518160020190805190602001906127d3929190613eb1565b50606082015181600301556080820151816004015560a0820151816005015560c08201518160060160006101000a81548160ff02191690836002811115612843577f4e487b7100000000000000000000000000000000000000000000000000000000600052602160045260246000fd5b021790555060e0820151816007019080519060200190612864929190613eb1565b506101008201518160080155610120820151816009015561014082015181600a01559050506128ac604051806060016040528060308152602001615e46603091398284613923565b80601c60003373ffffffffffffffffffffffffffffffffffffffff1673ffffffffffffffffffffffffffffffffffffffff168152602001908152602001600020819055506128fa6015612a74565b7f4bc303fd457a97b4691b9af582ce71868a3d258638c8d4f8c60988a0f0bfb8cd33828460405161292d93929190615319565b60405180910390a15050565b6129d1828260405160240161294f9291906153af565b6040516020818303038152906040527f4b5c4277000000000000000000000000000000000000000000000000000000007bffffffffffffffffffffffffffffffffffffffffffffffffffffffff19166020820180517bffffffffffffffffffffffffffffffffffffffffffffffffffffffff83818316178352505050506139c2565b5050565b612a6f8383836040516024016129ed939291906153e6565b6040516020818303038152906040527ff362ca59000000000000000000000000000000000000000000000000000000007bffffffffffffffffffffffffffffffffffffffffffffffffffffffff19166020820180517bffffffffffffffffffffffffffffffffffffffffffffffffffffffff83818316178352505050506139c2565b505050565b6001816000016000828254019250508190555050565b60007f01ffc9a7000000000000000000000000000000000000000000000000000000007bffffffffffffffffffffffffffffffffffffffffffffffffffffffff1916827bffffffffffffffffffffffffffffffffffffffffffffffffffffffff1916149050919050565b60008073ffffffffffffffffffffffffffffffffffffffff166002600084815260200190815260200160002060009054906101000a900473ffffffffffffffffffffffffffffffffffffffff1673ffffffffffffffffffffffffffffffffffffffff1614159050919050565b600033905090565b816004600083815260200190815260200160002060006101000a81548173ffffffffffffffffffffffffffffffffffffffff021916908373ffffffffffffffffffffffffffffffffffffffff160217905550808273ffffffffffffffffffffffffffffffffffffffff16612bdb83610eae565b73ffffffffffffffffffffffffffffffffffffffff167f8c5be1e5ebec7d5bd14f71427d1e84f3dd0314c0f7b2291e5b200ac8c7c3b92560405160405180910390a45050565b6000612c2c82612af4565b612c6b576040517f08c379a0000000000000000000000000000000000000000000000000000000008152600401612c62906155ba565b60405180910390fd5b6000612c7683610eae565b90508073ffffffffffffffffffffffffffffffffffffffff168473ffffffffffffffffffffffffffffffffffffffff161480612ce557508373ffffffffffffffffffffffffffffffffffffffff16612ccd84610764565b73ffffffffffffffffffffffffffffffffffffffff16145b80612cf65750612cf58185612337565b5b91505092915050565b8273ffffffffffffffffffffffffffffffffffffffff16612d1f82610eae565b73ffffffffffffffffffffffffffffffffffffffff1614612d75576040517f08c379a0000000000000000000000000000000000000000000000000000000008152600401612d6c906156ba565b60405180910390fd5b600073ffffffffffffffffffffffffffffffffffffffff168273ffffffffffffffffffffffffffffffffffffffff161415612de5576040517f08c379a0000000000000000000000000000000000000000000000000000000008152600401612ddc9061557a565b60405180910390fd5b612df08383836139eb565b612dfb600082612b68565b6001600360008573ffffffffffffffffffffffffffffffffffffffff1673ffffffffffffffffffffffffffffffffffffffff1681526020019081526020016000206000828254612e4b9190615a31565b925050819055506001600360008473ffffffffffffffffffffffffffffffffffffffff1673ffffffffffffffffffffffffffffffffffffffff1681526020019081526020016000206000828254612ea29190615950565b92505081905550816002600083815260200190815260200160002060006101000a81548173ffffffffffffffffffffffffffffffffffffffff021916908373ffffffffffffffffffffffffffffffffffffffff160217905550808273ffffffffffffffffffffffffffffffffffffffff168473ffffffffffffffffffffffffffffffffffffffff167fddf252ad1be2c89b69c2b068fc378daa952ba7f163c4a11628f55a4df523b3ef60405160405180910390a4505050565b612ff38282604051602401612f7192919061548c565b6040516020818303038152906040527f9710a9d0000000000000000000000000000000000000000000000000000000007bffffffffffffffffffffffffffffffffffffffffffffffffffffffff19166020820180517bffffffffffffffffffffffffffffffffffffffffffffffffffffffff83818316178352505050506139c2565b5050565b6060816002811115613032577f4e487b7100000000000000000000000000000000000000000000000000000000600052602160045260246000fd5b6000600281111561306c577f4e487b7100000000000000000000000000000000000000000000000000000000600052602160045260246000fd5b14156130af576040518060400160405280600581526020017f414c495645000000000000000000000000000000000000000000000000000000815250905061322d565b8160028111156130e8577f4e487b7100000000000000000000000000000000000000000000000000000000600052602160045260246000fd5b600280811115613121577f4e487b7100000000000000000000000000000000000000000000000000000000600052602160045260246000fd5b1415613164576040518060400160405280600481526020017f574f524b00000000000000000000000000000000000000000000000000000000815250905061322d565b81600281111561319d577f4e487b7100000000000000000000000000000000000000000000000000000000600052602160045260246000fd5b600160028111156131d7577f4e487b7100000000000000000000000000000000000000000000000000000000600052602160045260246000fd5b141561321a576040518060400160405280600481526020017f4445414400000000000000000000000000000000000000000000000000000000815250905061322d565b6040518060200160405280600081525090505b919050565b6132c881604051602401613246919061538d565b6040516020818303038152906040527f41304fac000000000000000000000000000000000000000000000000000000007bffffffffffffffffffffffffffffffffffffffffffffffffffffffff19166020820180517bffffffffffffffffffffffffffffffffffffffffffffffffffffffff83818316178352505050506139c2565b50565b6000601c60003373ffffffffffffffffffffffffffffffffffffffff1673ffffffffffffffffffffffffffffffffffffffff1681526020019081526020016000205490506000601d6000838152602001908152602001600020905080600a015481600901541015613371576040517f08c379a0000000000000000000000000000000000000000000000000000000008152600401613368906155da565b60405180910390fd5b6133af6040518060400160405280601581526020017f4c6576656c20757020696e2070726f6772657373210000000000000000000000815250613232565b6133f26040518060400160405280601181526020017f43757272656e74206c6576656c3a2025730000000000000000000000000000008152508260080154612f5b565b600081600901819055506019816004015461340d9190615950565b816004018190555080600401548160030181905550601981600501546134339190615950565b816005018190555061344881600801546139f0565b81600a0181905550600181600801546134619190615950565b81600801819055506134ac6040518060400160405280601881526020017f596f7520617265206e6f77206f6e206c6576656c2025732e00000000000000008152508260080154612f5b565b6134d2604051806060016040528060298152602001615e1d6029913982600a0154612f5b565b6134f3604051806060016040528060378152602001615d5960379139613232565b7fcbadce0717dab60d3dc2a5a3641c2cac2fb6487782b4a9726ea97d47ca9913ff33836040516135249291906152f0565b60405180910390a15050565b61353b848484612cff565b61354784848484613a1d565b613586576040517f08c379a000000000000000000000000000000000000000000000000000000000815260040161357d9061551a565b60405180910390fd5b50505050565b606060008214156135d4576040518060400160405280600181526020017f30000000000000000000000000000000000000000000000000000000000000008152509050613734565b600082905060005b600082146136065780806135ef90615b72565b915050600a826135ff91906159a6565b91506135dc565b60008167ffffffffffffffff811115613648577f4e487b7100000000000000000000000000000000000000000000000000000000600052604160045260246000fd5b6040519080825280601f01601f19166020018201604052801561367a5781602001600182028036833780820191505090505b5090505b6000851461372d576001826136939190615a31565b9150600a856136a29190615bbb565b60306136ae9190615950565b60f81b8183815181106136ea577f4e487b7100000000000000000000000000000000000000000000000000000000600052603260045260246000fd5b60200101907effffffffffffffffffffffffffffffffffffffffffffffffffffffffffffff1916908160001a905350600a8561372691906159a6565b945061367e565b8093505050505b919050565b6060600082519050600081141561376257604051806020016040528060008152509150506138f2565b600060036002836137739190615950565b61377d91906159a6565b600461378991906159d7565b9050600060208261379a9190615950565b67ffffffffffffffff8111156137d9577f4e487b7100000000000000000000000000000000000000000000000000000000600052604160045260246000fd5b6040519080825280601f01601f19166020018201604052801561380b5781602001600182028036833780820191505090505b5090506000604051806060016040528060408152602001615db5604091399050600181016020830160005b868110156138af5760038101905062ffffff818a015116603f8160121c168401518060081b905060ff603f83600c1c1686015116810190508060081b905060ff603f8360061c1686015116810190508060081b905060ff603f831686015116810190508060e01b90508084526004840193505050613836565b5060038606600181146138c957600281146138d9576138e4565b613d3d60f01b60028303526138e4565b603d60f81b60018303525b508484525050819450505050505b919050565b600081600001549050919050565b61391f828260405180602001604052806000815250613bb4565b5050565b6139bd83838360405160240161393b939291906154bc565b6040516020818303038152906040527f969cdd03000000000000000000000000000000000000000000000000000000007bffffffffffffffffffffffffffffffffffffffffffffffffffffffff19166020820180517bffffffffffffffffffffffffffffffffffffffffffffffffffffffff83818316178352505050506139c2565b505050565b60008151905060006a636f6e736f6c652e6c6f679050602083016000808483855afa5050505050565b505050565b6000601e600183613a019190615950565b83613a0c9190615950565b613a1691906159d7565b9050919050565b6000613a3e8473ffffffffffffffffffffffffffffffffffffffff16613c0f565b15613ba7578373ffffffffffffffffffffffffffffffffffffffff1663150b7a02613a67612b60565b8786866040518563ffffffff1660e01b8152600401613a8994939291906152a4565b602060405180830381600087803b158015613aa357600080fd5b505af1925050508015613ad457506040513d601f19601f82011682018060405250810190613ad191906141f5565b60015b613b57573d8060008114613b04576040519150601f19603f3d011682016040523d82523d6000602084013e613b09565b606091505b50600081511415613b4f576040517f08c379a0000000000000000000000000000000000000000000000000000000008152600401613b469061551a565b60405180910390fd5b805181602001fd5b63150b7a0260e01b7bffffffffffffffffffffffffffffffffffffffffffffffffffffffff1916817bffffffffffffffffffffffffffffffffffffffffffffffffffffffff191614915050613bac565b600190505b949350505050565b613bbe8383613c22565b613bcb6000848484613a1d565b613c0a576040517f08c379a0000000000000000000000000000000000000000000000000000000008152600401613c019061551a565b60405180910390fd5b505050565b600080823b905060008111915050919050565b600073ffffffffffffffffffffffffffffffffffffffff168273ffffffffffffffffffffffffffffffffffffffff161415613c92576040517f08c379a0000000000000000000000000000000000000000000000000000000008152600401613c899061565a565b60405180910390fd5b613c9b81612af4565b15613cdb576040517f08c379a0000000000000000000000000000000000000000000000000000000008152600401613cd29061553a565b60405180910390fd5b613ce7600083836139eb565b6001600360008473ffffffffffffffffffffffffffffffffffffffff1673ffffffffffffffffffffffffffffffffffffffff1681526020019081526020016000206000828254613d379190615950565b92505081905550816002600083815260200190815260200160002060006101000a81548173ffffffffffffffffffffffffffffffffffffffff021916908373ffffffffffffffffffffffffffffffffffffffff160217905550808273ffffffffffffffffffffffffffffffffffffffff16600073ffffffffffffffffffffffffffffffffffffffff167fddf252ad1be2c89b69c2b068fc378daa952ba7f163c4a11628f55a4df523b3ef60405160405180910390a45050565b6040518060a0016040528060608152602001606081526020016000815260200160008152602001600081525090565b60405180610160016040528060008152602001606081526020016060815260200160008152602001600081526020016000815260200160006002811115613e8f577f4e487b7100000000000000000000000000000000000000000000000000000000600052602160045260246000fd5b8152602001606081526020016000815260200160008152602001600081525090565b828054613ebd90615b40565b90600052602060002090601f016020900481019282613edf5760008555613f26565b82601f10613ef857805160ff1916838001178555613f26565b82800160010185558215613f26579182015b82811115613f25578251825591602001919060010190613f0a565b5b509050613f339190613f37565b5090565b5b80821115613f50576000816000905550600101613f38565b5090565b6000613f67613f6284615893565b615862565b905082815260208101848484011115613f7f57600080fd5b613f8a848285615afe565b509392505050565b600081359050613fa181615cfc565b92915050565b600081359050613fb681615d13565b92915050565b600081359050613fcb81615d2a565b92915050565b600081519050613fe081615d2a565b92915050565b600082601f830112613ff757600080fd5b8135614007848260208601613f54565b91505092915050565b60008135905061401f81615d41565b92915050565b60006020828403121561403757600080fd5b600061404584828501613f92565b91505092915050565b6000806040838503121561406157600080fd5b600061406f85828601613f92565b925050602061408085828601613f92565b9150509250929050565b60008060006060848603121561409f57600080fd5b60006140ad86828701613f92565b93505060206140be86828701613f92565b92505060406140cf86828701614010565b9150509250925092565b600080600080608085870312156140ef57600080fd5b60006140fd87828801613f92565b945050602061410e87828801613f92565b935050604061411f87828801614010565b925050606085013567ffffffffffffffff81111561413c57600080fd5b61414887828801613fe6565b91505092959194509250565b6000806040838503121561416757600080fd5b600061417585828601613f92565b925050602061418685828601613fa7565b9150509250929050565b600080604083850312156141a357600080fd5b60006141b185828601613f92565b92505060206141c285828601614010565b9150509250929050565b6000602082840312156141de57600080fd5b60006141ec84828501613fbc565b91505092915050565b60006020828403121561420757600080fd5b600061421584828501613fd1565b91505092915050565b60006020828403121561423057600080fd5b600061423e84828501614010565b91505092915050565b60006142538383614f03565b905092915050565b61426481615a65565b82525050565b6000614275826158d3565b61427f8185615901565b935083602082028501614291856158c3565b8060005b858110156142cd57848403895281516142ae8582614247565b94506142b9836158f4565b925060208a01995050600181019050614295565b50829750879550505050505092915050565b6142e881615a77565b82525050565b60006142f9826158de565b6143038185615912565b9350614313818560208601615b0d565b61431c81615cd7565b840191505092915050565b61433081615aec565b82525050565b61433f81615aec565b82525050565b6000614350826158e9565b61435a8185615923565b935061436a818560208601615b0d565b61437381615cd7565b840191505092915050565b6000614389826158e9565b6143938185615934565b93506143a3818560208601615b0d565b6143ac81615cd7565b840191505092915050565b60006143c2826158e9565b6143cc8185615945565b93506143dc818560208601615b0d565b80840191505092915050565b60006143f5602883615934565b91507f4572726f723a20626f737320616c72656164792061677265656420796f75722060008301527f726571756573742e0000000000000000000000000000000000000000000000006020830152604082019050919050565b600061445b600b83615945565b91507f202d2d204e465420233a200000000000000000000000000000000000000000006000830152600b82019050919050565b600061449b603583615945565b91507f222c20226465736372697074696f6e223a202254727920746f20676574206d6f60008301527f7265204d6f6e6579222c2022696d616765223a202200000000000000000000006020830152603582019050919050565b6000614501600583615945565b91507f227d205d7d0000000000000000000000000000000000000000000000000000006000830152600582019050919050565b6000614541602d83615945565b91507f7d2c7b202274726169745f74797065223a202243757272656e7420537461746560008301527f222c202276616c7565223a2022000000000000000000000000000000000000006020830152602d82019050919050565b60006145a7603283615934565b91507f4552433732313a207472616e7366657220746f206e6f6e20455243373231526560008301527f63656976657220696d706c656d656e74657200000000000000000000000000006020830152604082019050919050565b600061460d601c83615934565b91507f4552433732313a20746f6b656e20616c7265616479206d696e746564000000006000830152602082019050919050565b600061464d600e83615945565b91507f2c20226d61785f76616c7565223a0000000000000000000000000000000000006000830152600e82019050919050565b600061468d602483615934565b91507f526576697665206f6e6c7920706f737369626c6520696620796f75206172652060008301527f64656164000000000000000000000000000000000000000000000000000000006020830152604082019050919050565b60006146f3602483615934565b91507f4552433732313a207472616e7366657220746f20746865207a65726f2061646460008301527f72657373000000000000000000000000000000000000000000000000000000006020830152604082019050919050565b6000614759601983615934565b91507f4552433732313a20617070726f766520746f2063616c6c6572000000000000006000830152602082019050919050565b6000614799602983615945565b91507f7d2c207b202274726169745f74797065223a2022417267756d656e7473222c2060008301527f2276616c7565223a2000000000000000000000000000000000000000000000006020830152602982019050919050565b60006147ff602c83615934565b91507f4552433732313a206f70657261746f7220717565727920666f72206e6f6e657860008301527f697374656e7420746f6b656e00000000000000000000000000000000000000006020830152604082019050919050565b6000614865600183615945565b91507f20000000000000000000000000000000000000000000000000000000000000006000830152600182019050919050565b60006148a5601d83615934565b91507f4e6f7420656e6f75676820585020746f20676574206c6576656c2075700000006000830152602082019050919050565b60006148e5603883615934565b91507f4552433732313a20617070726f76652063616c6c6572206973206e6f74206f7760008301527f6e6572206e6f7220617070726f76656420666f7220616c6c00000000000000006020830152604082019050919050565b600061494b602a83615934565b91507f4552433732313a2062616c616e636520717565727920666f7220746865207a6560008301527f726f2061646472657373000000000000000000000000000000000000000000006020830152604082019050919050565b60006149b1602983615934565b91507f4552433732313a206f776e657220717565727920666f72206e6f6e657869737460008301527f656e7420746f6b656e00000000000000000000000000000000000000000000006020830152604082019050919050565b6000614a17602a83615945565b91507f7d2c207b202274726169745f74797065223a202250657273756173696f6e222c60008301527f202276616c7565223a20000000000000000000000000000000000000000000006020830152602a82019050919050565b6000614a7d602083615934565b91507f4552433732313a206d696e7420746f20746865207a65726f20616464726573736000830152602082019050919050565b6000614abd604183615934565b91507f4572726f723a20636861726163746572206d757374206861766520617267756d60008301527f656e747320746f20726571756573742073616c61727920696e6372656173736560208301527f2e000000000000000000000000000000000000000000000000000000000000006040830152606082019050919050565b6000614b49602c83615934565b91507f4552433732313a20617070726f76656420717565727920666f72206e6f6e657860008301527f697374656e7420746f6b656e00000000000000000000000000000000000000006020830152604082019050919050565b6000614baf602983615934565b91507f4552433732313a207472616e73666572206f6620746f6b656e2074686174206960008301527f73206e6f74206f776e00000000000000000000000000000000000000000000006020830152604082019050919050565b6000614c15603583615945565b91507f222c202261747472696275746573223a205b207b202274726169745f7479706560008301527f223a20224c6576656c222c202276616c7565223a2000000000000000000000006020830152603582019050919050565b6000614c7b600a83615945565b91507f7b226e616d65223a2022000000000000000000000000000000000000000000006000830152600a82019050919050565b6000614cbb602183615934565b91507f4552433732313a20617070726f76616c20746f2063757272656e74206f776e6560008301527f72000000000000000000000000000000000000000000000000000000000000006020830152604082019050919050565b6000614d21601d83615945565b91507f646174613a6170706c69636174696f6e2f6a736f6e3b6261736536342c0000006000830152601d82019050919050565b6000614d61603183615934565b91507f4552433732313a207472616e736665722063616c6c6572206973206e6f74206f60008301527f776e6572206e6f7220617070726f7665640000000000000000000000000000006020830152604082019050919050565b6000614dc7602a83615945565b91507f227d2c7b202274726169745f74797065223a20224a6f62207469746c65222c2060008301527f2276616c7565223a2022000000000000000000000000000000000000000000006020830152602a82019050919050565b6000614e2d602a83615945565b91507f7d2c207b202274726169745f74797065223a2022457870657269656e6365222c60008301527f202276616c7565223a20000000000000000000000000000000000000000000006020830152602a82019050919050565b600060a0830160008301518482036000860152614ea38282614345565b91505060208301518482036020860152614ebd8282614345565b9150506040830151614ed260408601826150fd565b506060830151614ee560608601826150fd565b506080830151614ef860808601826150fd565b508091505092915050565b600061016083016000830151614f1c60008601826150fd565b5060208301518482036020860152614f348282614345565b91505060408301518482036040860152614f4e8282614345565b9150506060830151614f6360608601826150fd565b506080830151614f7660808601826150fd565b5060a0830151614f8960a08601826150fd565b5060c0830151614f9c60c0860182614327565b5060e083015184820360e0860152614fb48282614345565b915050610100830151614fcb6101008601826150fd565b50610120830151614fe06101208601826150fd565b50610140830151614ff56101408601826150fd565b508091505092915050565b60006101608301600083015161501960008601826150fd565b50602083015184820360208601526150318282614345565b9150506040830151848203604086015261504b8282614345565b915050606083015161506060608601826150fd565b50608083015161507360808601826150fd565b5060a083015161508660a08601826150fd565b5060c083015161509960c0860182614327565b5060e083015184820360e08601526150b18282614345565b9150506101008301516150c86101008601826150fd565b506101208301516150dd6101208601826150fd565b506101408301516150f26101408601826150fd565b508091505092915050565b61510681615ae2565b82525050565b61511581615ae2565b82525050565b600061512782856143b7565b915061513282614858565b915061513e82846143b7565b91508190509392505050565b600061515582614c6e565b9150615161828e6143b7565b915061516c8261444e565b9150615178828d6143b7565b91506151838261448e565b915061518f828c6143b7565b915061519a82614c08565b91506151a6828b6143b7565b91506151b182614e20565b91506151bd828a6143b7565b91506151c882614640565b91506151d482896143b7565b91506151df8261478c565b91506151eb82886143b7565b91506151f682614640565b915061520282876143b7565b915061520d82614a0a565b915061521982866143b7565b915061522482614534565b915061523082856143b7565b915061523b82614dba565b915061524782846143b7565b9150615252826144f4565b91508190509c9b505050505050505050505050565b600061527282614d14565b915061527e82846143b7565b915081905092915050565b600060208201905061529e600083018461425b565b92915050565b60006080820190506152b9600083018761425b565b6152c6602083018661425b565b6152d3604083018561510c565b81810360608301526152e581846142ee565b905095945050505050565b6000604082019050615305600083018561425b565b615312602083018461510c565b9392505050565b600060608201905061532e600083018661425b565b61533b602083018561510c565b615348604083018461510c565b949350505050565b6000602082019050818103600083015261536a818461426a565b905092915050565b600060208201905061538760008301846142df565b92915050565b600060208201905081810360008301526153a7818461437e565b905092915050565b600060408201905081810360008301526153c9818561437e565b905081810360208301526153dd818461437e565b90509392505050565b60006060820190508181036000830152615400818661437e565b90508181036020830152615414818561437e565b9050615423604083018461510c565b949350505050565b600060a0820190508181036000830152615445818861437e565b90508181036020830152615459818761437e565b9050615468604083018661510c565b615475606083018561510c565b615482608083018461510c565b9695505050505050565b600060408201905081810360008301526154a6818561437e565b90506154b5602083018461510c565b9392505050565b600060608201905081810360008301526154d6818661437e565b90506154e5602083018561510c565b6154f2604083018461510c565b949350505050565b60006020820190508181036000830152615513816143e8565b9050919050565b600060208201905081810360008301526155338161459a565b9050919050565b6000602082019050818103600083015261555381614600565b9050919050565b6000602082019050818103600083015261557381614680565b9050919050565b60006020820190508181036000830152615593816146e6565b9050919050565b600060208201905081810360008301526155b38161474c565b9050919050565b600060208201905081810360008301526155d3816147f2565b9050919050565b600060208201905081810360008301526155f381614898565b9050919050565b60006020820190508181036000830152615613816148d8565b9050919050565b600060208201905081810360008301526156338161493e565b9050919050565b60006020820190508181036000830152615653816149a4565b9050919050565b6000602082019050818103600083015261567381614a70565b9050919050565b6000602082019050818103600083015261569381614ab0565b9050919050565b600060208201905081810360008301526156b381614b3c565b9050919050565b600060208201905081810360008301526156d381614ba2565b9050919050565b600060208201905081810360008301526156f381614cae565b9050919050565b6000602082019050818103600083015261571381614d54565b9050919050565b600060208201905081810360008301526157348184614e86565b905092915050565b600060208201905081810360008301526157568184615000565b905092915050565b6000602082019050615773600083018461510c565b92915050565b60006101608201905061578f600083018e61510c565b81810360208301526157a1818d61437e565b905081810360408301526157b5818c61437e565b90506157c4606083018b61510c565b6157d1608083018a61510c565b6157de60a083018961510c565b6157eb60c0830188614336565b81810360e08301526157fd818761437e565b905061580d61010083018661510c565b61581b61012083018561510c565b61582961014083018461510c565b9c9b505050505050505050505050565b600060408201905061584e600083018561510c565b61585b602083018461510c565b9392505050565b6000604051905081810181811067ffffffffffffffff8211171561588957615888615ca8565b5b8060405250919050565b600067ffffffffffffffff8211156158ae576158ad615ca8565b5b601f19601f8301169050602081019050919050565b6000819050602082019050919050565b600081519050919050565b600081519050919050565b600081519050919050565b6000602082019050919050565b600082825260208201905092915050565b600082825260208201905092915050565b600082825260208201905092915050565b600082825260208201905092915050565b600081905092915050565b600061595b82615ae2565b915061596683615ae2565b9250827fffffffffffffffffffffffffffffffffffffffffffffffffffffffffffffffff0382111561599b5761599a615bec565b5b828201905092915050565b60006159b182615ae2565b91506159bc83615ae2565b9250826159cc576159cb615c1b565b5b828204905092915050565b60006159e282615ae2565b91506159ed83615ae2565b9250817fffffffffffffffffffffffffffffffffffffffffffffffffffffffffffffffff0483118215151615615a2657615a25615bec565b5b828202905092915050565b6000615a3c82615ae2565b9150615a4783615ae2565b925082821015615a5a57615a59615bec565b5b828203905092915050565b6000615a7082615ac2565b9050919050565b60008115159050919050565b60007fffffffff0000000000000000000000000000000000000000000000000000000082169050919050565b6000819050615abd82615ce8565b919050565b600073ffffffffffffffffffffffffffffffffffffffff82169050919050565b6000819050919050565b6000615af782615aaf565b9050919050565b82818337600083830152505050565b60005b83811015615b2b578082015181840152602081019050615b10565b83811115615b3a576000848401525b50505050565b60006002820490506001821680615b5857607f821691505b60208210811415615b6c57615b6b615c79565b5b50919050565b6000615b7d82615ae2565b91507fffffffffffffffffffffffffffffffffffffffffffffffffffffffffffffffff821415615bb057615baf615bec565b5b600182019050919050565b6000615bc682615ae2565b9150615bd183615ae2565b925082615be157615be0615c1b565b5b828206905092915050565b7f4e487b7100000000000000000000000000000000000000000000000000000000600052601160045260246000fd5b7f4e487b7100000000000000000000000000000000000000000000000000000000600052601260045260246000fd5b7f4e487b7100000000000000000000000000000000000000000000000000000000600052602160045260246000fd5b7f4e487b7100000000000000000000000000000000000000000000000000000000600052602260045260246000fd5b7f4e487b7100000000000000000000000000000000000000000000000000000000600052604160045260246000fd5b6000601f19601f8301169050919050565b60038110615cf957615cf8615c4a565b5b50565b615d0581615a65565b8114615d1057600080fd5b50565b615d1c81615a77565b8114615d2757600080fd5b50565b615d3381615a83565b8114615d3e57600080fd5b50565b615d4a81615ae2565b8114615d5557600080fd5b5056fe4865616c746820697320636f6d706c65746c7920726573746f7265642e20537461747320696e6372656173656420736c696768746c792e506c617965722061747461636b656420626f73732e204e657720626f73732068703a2025734142434445464748494a4b4c4d4e4f505152535455565758595a6162636465666768696a6b6c6d6e6f707172737475767778797a303132333435363738392b2f426f73732061747461636b656420706c617965722e204e657720706c617965722068703a2025730a4c6576656c20757020646f6e652e204e65656420257320585020666f72206e657874206c6576656c2e4d696e746564204e4654207769746820746f6b656e496420257320616e6420636861726163746572496e6465782025730a506c617965722077697468206368617261637465722025732069732061626f757420746f20726571756573742ea26469706673582212209ac98a8b87010e12549185bb5af0019f9ffdfcd002fe030583cddc97b821ea4064736f6c63430008000033446f6e6520696e697469616c697a696e67202573207769746820257320417267756d656e7473",
  "linkReferences": {},
  "deployedLinkReferences": {}
}