{
  "_format": "hh-sol-artifact-1",
  "contractName": "MyEpicGame",
  "sourceName": "contracts/MyEpicGame.sol",
  "abi": [
    {
      "inputs": [
        {
          "internalType": "string[]",
          "name": "characterNames",
          "type": "string[]"
        },
        {
          "internalType": "string[]",
          "name": "characterImageURIs",
          "type": "string[]"
        },
        {
          "internalType": "uint256[]",
          "name": "characterArguments",
          "type": "uint256[]"
        },
        {
          "internalType": "uint256[]",
          "name": "characterPersuasion",
          "type": "uint256[]"
        },
        {
          "internalType": "string",
          "name": "bossName",
          "type": "string"
        },
        {
          "internalType": "string",
          "name": "bossImageURI",
          "type": "string"
        },
        {
          "internalType": "uint256",
          "name": "bossIgnorance",
          "type": "uint256"
        },
        {
          "internalType": "uint256",
          "name": "bossHumiliation",
          "type": "uint256"
        }
      ],
      "stateMutability": "nonpayable",
      "type": "constructor"
    },
    {
      "anonymous": false,
      "inputs": [
        {
          "indexed": true,
          "internalType": "address",
          "name": "owner",
          "type": "address"
        },
        {
          "indexed": true,
          "internalType": "address",
          "name": "approved",
          "type": "address"
        },
        {
          "indexed": true,
          "internalType": "uint256",
          "name": "tokenId",
          "type": "uint256"
        }
      ],
      "name": "Approval",
      "type": "event"
    },
    {
      "anonymous": false,
      "inputs": [
        {
          "indexed": true,
          "internalType": "address",
          "name": "owner",
          "type": "address"
        },
        {
          "indexed": true,
          "internalType": "address",
          "name": "operator",
          "type": "address"
        },
        {
          "indexed": false,
          "internalType": "bool",
          "name": "approved",
          "type": "bool"
        }
      ],
      "name": "ApprovalForAll",
      "type": "event"
    },
    {
      "anonymous": false,
      "inputs": [
        {
          "indexed": false,
          "internalType": "uint256",
          "name": "newBossHp",
          "type": "uint256"
        },
        {
          "indexed": false,
          "internalType": "uint256",
          "name": "newPlayerHp",
          "type": "uint256"
        },
        {
          "indexed": false,
          "internalType": "uint256",
          "name": "newPlayerXp",
          "type": "uint256"
        }
      ],
      "name": "AttackComplete",
      "type": "event"
    },
    {
      "anonymous": false,
      "inputs": [
        {
          "indexed": false,
          "internalType": "address",
          "name": "sender",
          "type": "address"
        },
        {
          "indexed": false,
          "internalType": "uint256",
          "name": "tokenId",
          "type": "uint256"
        },
        {
          "indexed": false,
          "internalType": "uint256",
          "name": "characterIndex",
          "type": "uint256"
        }
      ],
      "name": "CharacterNFTMinted",
      "type": "event"
    },
    {
      "anonymous": false,
      "inputs": [
        {
          "indexed": true,
          "internalType": "address",
          "name": "sender",
          "type": "address"
        },
        {
          "indexed": false,
          "internalType": "uint256",
          "name": "timestamp",
          "type": "uint256"
        },
        {
          "indexed": true,
          "internalType": "uint256",
          "name": "tokenId",
          "type": "uint256"
        }
      ],
      "name": "PlayerDead",
      "type": "event"
    },
    {
      "anonymous": false,
      "inputs": [
        {
          "indexed": false,
          "internalType": "address",
          "name": "sender",
          "type": "address"
        },
        {
          "indexed": false,
          "internalType": "uint256",
          "name": "tokenId",
          "type": "uint256"
        }
      ],
      "name": "PlayerLevelUp",
      "type": "event"
    },
    {
      "anonymous": false,
      "inputs": [
        {
          "indexed": false,
          "internalType": "address",
          "name": "sender",
          "type": "address"
        },
        {
          "indexed": false,
          "internalType": "uint256",
          "name": "tokenId",
          "type": "uint256"
        }
      ],
      "name": "PlayerRevived",
      "type": "event"
    },
    {
      "anonymous": false,
      "inputs": [
        {
          "indexed": true,
          "internalType": "address",
          "name": "from",
          "type": "address"
        },
        {
          "indexed": true,
          "internalType": "address",
          "name": "to",
          "type": "address"
        },
        {
          "indexed": true,
          "internalType": "uint256",
          "name": "tokenId",
          "type": "uint256"
        }
      ],
      "name": "Transfer",
      "type": "event"
    },
    {
      "inputs": [
        {
          "internalType": "address",
          "name": "to",
          "type": "address"
        },
        {
          "internalType": "uint256",
          "name": "tokenId",
          "type": "uint256"
        }
      ],
      "name": "approve",
      "outputs": [],
      "stateMutability": "nonpayable",
      "type": "function"
    },
    {
      "inputs": [
        {
          "internalType": "address",
          "name": "owner",
          "type": "address"
        }
      ],
      "name": "balanceOf",
      "outputs": [
        {
          "internalType": "uint256",
          "name": "",
          "type": "uint256"
        }
      ],
      "stateMutability": "view",
      "type": "function"
    },
    {
      "inputs": [],
      "name": "bigBoss",
      "outputs": [
        {
          "internalType": "string",
          "name": "name",
          "type": "string"
        },
        {
          "internalType": "string",
          "name": "imageURI",
          "type": "string"
        },
        {
          "internalType": "uint256",
          "name": "hp",
          "type": "uint256"
        },
        {
          "internalType": "uint256",
          "name": "maxHp",
          "type": "uint256"
        },
        {
          "internalType": "uint256",
          "name": "attack",
          "type": "uint256"
        }
      ],
      "stateMutability": "view",
      "type": "function"
    },
    {
      "inputs": [],
      "name": "checkIfUserHasNFT",
      "outputs": [
        {
          "components": [
            {
              "internalType": "uint256",
              "name": "characterIndex",
              "type": "uint256"
            },
            {
              "internalType": "string",
              "name": "name",
              "type": "string"
            },
            {
              "internalType": "string",
              "name": "imageURI",
              "type": "string"
            },
            {
              "internalType": "uint256",
              "name": "hp",
              "type": "uint256"
            },
            {
              "internalType": "uint256",
              "name": "maxHp",
              "type": "uint256"
            },
            {
              "internalType": "uint256",
              "name": "attack",
              "type": "uint256"
            },
            {
              "internalType": "enum MyEpicGame.LifeState",
              "name": "lifeState",
              "type": "uint8"
            },
            {
              "internalType": "string",
              "name": "jobDescription",
              "type": "string"
            },
            {
              "internalType": "uint256",
              "name": "level",
              "type": "uint256"
            },
            {
              "internalType": "uint256",
              "name": "experience",
              "type": "uint256"
            },
            {
              "internalType": "uint256",
              "name": "maxExperience",
              "type": "uint256"
            }
          ],
          "internalType": "struct MyEpicGame.CharacterAttributes",
          "name": "",
          "type": "tuple"
        }
      ],
      "stateMutability": "view",
      "type": "function"
    },
    {
      "inputs": [],
      "name": "getAllDefaultCharacters",
      "outputs": [
        {
          "components": [
            {
              "internalType": "uint256",
              "name": "characterIndex",
              "type": "uint256"
            },
            {
              "internalType": "string",
              "name": "name",
              "type": "string"
            },
            {
              "internalType": "string",
              "name": "imageURI",
              "type": "string"
            },
            {
              "internalType": "uint256",
              "name": "hp",
              "type": "uint256"
            },
            {
              "internalType": "uint256",
              "name": "maxHp",
              "type": "uint256"
            },
            {
              "internalType": "uint256",
              "name": "attack",
              "type": "uint256"
            },
            {
              "internalType": "enum MyEpicGame.LifeState",
              "name": "lifeState",
              "type": "uint8"
            },
            {
              "internalType": "string",
              "name": "jobDescription",
              "type": "string"
            },
            {
              "internalType": "uint256",
              "name": "level",
              "type": "uint256"
            },
            {
              "internalType": "uint256",
              "name": "experience",
              "type": "uint256"
            },
            {
              "internalType": "uint256",
              "name": "maxExperience",
              "type": "uint256"
            }
          ],
          "internalType": "struct MyEpicGame.CharacterAttributes[]",
          "name": "",
          "type": "tuple[]"
        }
      ],
      "stateMutability": "view",
      "type": "function"
    },
    {
      "inputs": [
        {
          "internalType": "uint256",
          "name": "tokenId",
          "type": "uint256"
        }
      ],
      "name": "getApproved",
      "outputs": [
        {
          "internalType": "address",
          "name": "",
          "type": "address"
        }
      ],
      "stateMutability": "view",
      "type": "function"
    },
    {
      "inputs": [],
      "name": "getBigBoss",
      "outputs": [
        {
          "components": [
            {
              "internalType": "string",
              "name": "name",
              "type": "string"
            },
            {
              "internalType": "string",
              "name": "imageURI",
              "type": "string"
            },
            {
              "internalType": "uint256",
              "name": "hp",
              "type": "uint256"
            },
            {
              "internalType": "uint256",
              "name": "maxHp",
              "type": "uint256"
            },
            {
              "internalType": "uint256",
              "name": "attack",
              "type": "uint256"
            }
          ],
          "internalType": "struct MyEpicGame.BigBoss",
          "name": "",
          "type": "tuple"
        }
      ],
      "stateMutability": "view",
      "type": "function"
    },
    {
      "inputs": [
        {
          "internalType": "address",
          "name": "owner",
          "type": "address"
        },
        {
          "internalType": "address",
          "name": "operator",
          "type": "address"
        }
      ],
      "name": "isApprovedForAll",
      "outputs": [
        {
          "internalType": "bool",
          "name": "",
          "type": "bool"
        }
      ],
      "stateMutability": "view",
      "type": "function"
    },
    {
      "inputs": [
        {
          "internalType": "uint256",
          "name": "_characterIndex",
          "type": "uint256"
        }
      ],
      "name": "mintCharacterNFT",
      "outputs": [],
      "stateMutability": "nonpayable",
      "type": "function"
    },
    {
      "inputs": [],
      "name": "name",
      "outputs": [
        {
          "internalType": "string",
          "name": "",
          "type": "string"
        }
      ],
      "stateMutability": "view",
      "type": "function"
    },
    {
      "inputs": [
        {
          "internalType": "uint256",
          "name": "",
          "type": "uint256"
        }
      ],
      "name": "nftHolderAttributes",
      "outputs": [
        {
          "internalType": "uint256",
          "name": "characterIndex",
          "type": "uint256"
        },
        {
          "internalType": "string",
          "name": "name",
          "type": "string"
        },
        {
          "internalType": "string",
          "name": "imageURI",
          "type": "string"
        },
        {
          "internalType": "uint256",
          "name": "hp",
          "type": "uint256"
        },
        {
          "internalType": "uint256",
          "name": "maxHp",
          "type": "uint256"
        },
        {
          "internalType": "uint256",
          "name": "attack",
          "type": "uint256"
        },
        {
          "internalType": "enum MyEpicGame.LifeState",
          "name": "lifeState",
          "type": "uint8"
        },
        {
          "internalType": "string",
          "name": "jobDescription",
          "type": "string"
        },
        {
          "internalType": "uint256",
          "name": "level",
          "type": "uint256"
        },
        {
          "internalType": "uint256",
          "name": "experience",
          "type": "uint256"
        },
        {
          "internalType": "uint256",
          "name": "maxExperience",
          "type": "uint256"
        }
      ],
      "stateMutability": "view",
      "type": "function"
    },
    {
      "inputs": [
        {
          "internalType": "address",
          "name": "",
          "type": "address"
        }
      ],
      "name": "nftHolders",
      "outputs": [
        {
          "internalType": "uint256",
          "name": "",
          "type": "uint256"
        }
      ],
      "stateMutability": "view",
      "type": "function"
    },
    {
      "inputs": [
        {
          "internalType": "uint256",
          "name": "tokenId",
          "type": "uint256"
        }
      ],
      "name": "ownerOf",
      "outputs": [
        {
          "internalType": "address",
          "name": "",
          "type": "address"
        }
      ],
      "stateMutability": "view",
      "type": "function"
    },
    {
      "inputs": [],
      "name": "requestSalaryIncrease",
      "outputs": [],
      "stateMutability": "nonpayable",
      "type": "function"
    },
    {
      "inputs": [],
      "name": "reviveCharacter",
      "outputs": [],
      "stateMutability": "nonpayable",
      "type": "function"
    },
    {
      "inputs": [
        {
          "internalType": "address",
          "name": "from",
          "type": "address"
        },
        {
          "internalType": "address",
          "name": "to",
          "type": "address"
        },
        {
          "internalType": "uint256",
          "name": "tokenId",
          "type": "uint256"
        }
      ],
      "name": "safeTransferFrom",
      "outputs": [],
      "stateMutability": "nonpayable",
      "type": "function"
    },
    {
      "inputs": [
        {
          "internalType": "address",
          "name": "from",
          "type": "address"
        },
        {
          "internalType": "address",
          "name": "to",
          "type": "address"
        },
        {
          "internalType": "uint256",
          "name": "tokenId",
          "type": "uint256"
        },
        {
          "internalType": "bytes",
          "name": "_data",
          "type": "bytes"
        }
      ],
      "name": "safeTransferFrom",
      "outputs": [],
      "stateMutability": "nonpayable",
      "type": "function"
    },
    {
      "inputs": [],
      "name": "setAliveState",
      "outputs": [],
      "stateMutability": "nonpayable",
      "type": "function"
    },
    {
      "inputs": [
        {
          "internalType": "address",
          "name": "operator",
          "type": "address"
        },
        {
          "internalType": "bool",
          "name": "approved",
          "type": "bool"
        }
      ],
      "name": "setApprovalForAll",
      "outputs": [],
      "stateMutability": "nonpayable",
      "type": "function"
    },
    {
      "inputs": [],
      "name": "setDeadState",
      "outputs": [],
      "stateMutability": "nonpayable",
      "type": "function"
    },
    {
      "inputs": [],
      "name": "setWorkState",
      "outputs": [],
      "stateMutability": "nonpayable",
      "type": "function"
    },
    {
      "inputs": [
        {
          "internalType": "bytes4",
          "name": "interfaceId",
          "type": "bytes4"
        }
      ],
      "name": "supportsInterface",
      "outputs": [
        {
          "internalType": "bool",
          "name": "",
          "type": "bool"
        }
      ],
      "stateMutability": "view",
      "type": "function"
    },
    {
      "inputs": [],
      "name": "symbol",
      "outputs": [
        {
          "internalType": "string",
          "name": "",
          "type": "string"
        }
      ],
      "stateMutability": "view",
      "type": "function"
    },
    {
      "inputs": [
        {
          "internalType": "uint256",
          "name": "_tokenId",
          "type": "uint256"
        }
      ],
      "name": "tokenURI",
      "outputs": [
        {
          "internalType": "string",
          "name": "",
          "type": "string"
        }
      ],
      "stateMutability": "view",
      "type": "function"
    },
    {
      "inputs": [
        {
          "internalType": "address",
          "name": "from",
          "type": "address"
        },
        {
          "internalType": "address",
          "name": "to",
          "type": "address"
        },
        {
          "internalType": "uint256",
          "name": "tokenId",
          "type": "uint256"
        }
      ],
      "name": "transferFrom",
      "outputs": [],
      "stateMutability": "nonpayable",
      "type": "function"
    }
  ],
  "bytecode": "0x60806040526040518060a001604052806040518060400160405280600681526020017f6a756e696f72000000000000000000000000000000000000000000000000000081525081526020016040518060400160405280600881526020017f616476616e63656400000000000000000000000000000000000000000000000081525081526020016040518060400160405280600681526020017f73656e696f72000000000000000000000000000000000000000000000000000081525081526020016040518060400160405280600c81526020017f70726f66657373696f6e616c000000000000000000000000000000000000000081525081526020016040518060400160405280600681526020017f657870657274000000000000000000000000000000000000000000000000000081525081525060069060056200014692919062000e7b565b506040518061014001604052806040518060400160405280600781526020017f747261696e65650000000000000000000000000000000000000000000000000081525081526020016040518060400160405280600a81526020017f61707072656e746963650000000000000000000000000000000000000000000081525081526020016040518060400160405280601081526020017f74656d706f72617279206a6f626265720000000000000000000000000000000081525081526020016040518060400160405280600881526020017f656d706c6f79656500000000000000000000000000000000000000000000000081525081526020016040518060400160405280601181526020017f746f70696320726573706f6e7369626c6500000000000000000000000000000081525081526020016040518060400160405280600b81526020017f7465616d206c656164657200000000000000000000000000000000000000000081525081526020016040518060400160405280601081526020017f6c6f776572204d616e6167656d656e740000000000000000000000000000000081525081526020016040518060400160405280601081526020017f7570706572204d616e6167656d656e740000000000000000000000000000000081525081526020016040518060400160405280600881526020017f6469726563746f7200000000000000000000000000000000000000000000000081525081526020016040518060400160405280600981526020017f6578656375746976650000000000000000000000000000000000000000000000815250815250600b90600a620003b192919062000ed5565b50348015620003bf57600080fd5b5060405162007717380380620077178339818101604052810190620003e591906200120a565b6040518060400160405280600681526020017f576f726b657200000000000000000000000000000000000000000000000000008152506040518060400160405280600681526020017f574f524b4552000000000000000000000000000000000000000000000000000081525081600090805190602001906200046992919062000f2f565b5080600190805190602001906200048292919062000f2f565b5050506040518060a001604052808581526020018481526020018381526020018381526020018281525060176000820151816000019080519060200190620004cc92919062000f2f565b506020820151816001019080519060200190620004eb92919062000f2f565b50604082015181600201556060820151816003015560808201518160040155905050620005ee6040518060400160405280601981526020017f446f6e6520696e697469616c697a696e6720626f73732025730000000000000081525060176000018054620005599062001672565b80601f0160208091040260200160405190810160405280929190818152602001828054620005879062001672565b8015620005d85780601f10620005ac57610100808354040283529160200191620005d8565b820191906000526020600020905b815481529060010190602001808311620005ba57829003601f168201915b505050505062000ced60201b620029cb1760201c565b60005b885181101562000cc75760166040518061016001604052808381526020018b848151811062000649577f4e487b7100000000000000000000000000000000000000000000000000000000600052603260045260246000fd5b602002602001015181526020018a848151811062000690577f4e487b7100000000000000000000000000000000000000000000000000000000600052603260045260246000fd5b60200260200101518152602001898481518110620006d7577f4e487b7100000000000000000000000000000000000000000000000000000000600052603260045260246000fd5b602002602001015181526020018984815181106200071e577f4e487b7100000000000000000000000000000000000000000000000000000000600052603260045260246000fd5b6020026020010151815260200188848151811062000765577f4e487b7100000000000000000000000000000000000000000000000000000000600052603260045260246000fd5b6020026020010151815260200160006002811115620007ad577f4e487b7100000000000000000000000000000000000000000000000000000000600052602160045260246000fd5b81526020016040518060400160405280600681526020017f6a756e696f7200000000000000000000000000000000000000000000000000008152506040518060400160405280600781526020017f747261696e656500000000000000000000000000000000000000000000000000815250604051602001620008319291906200142e565b60405160208183030381529060405281526020016001815260200160008152602001601e81525090806001815401808255809150506001900390600052602060002090600b0201600090919091909150600082015181600001556020820151816001019080519060200190620008a992919062000f2f565b506040820151816002019080519060200190620008c892919062000f2f565b50606082015181600301556080820151816004015560a0820151816005015560c08201518160060160006101000a81548160ff0219169083600281111562000939577f4e487b7100000000000000000000000000000000000000000000000000000000600052602160045260246000fd5b021790555060e08201518160070190805190602001906200095c92919062000f2f565b506101008201518160080155610120820151816009015561014082015181600a01555050600060168281548110620009bd577f4e487b7100000000000000000000000000000000000000000000000000000000600052603260045260246000fd5b90600052602060002090600b02016040518061016001604052908160008201548152602001600182018054620009f39062001672565b80601f016020809104026020016040519081016040528092919081815260200182805462000a219062001672565b801562000a725780601f1062000a465761010080835404028352916020019162000a72565b820191906000526020600020905b81548152906001019060200180831162000a5457829003601f168201915b5050505050815260200160028201805462000a8d9062001672565b80601f016020809104026020016040519081016040528092919081815260200182805462000abb9062001672565b801562000b0c5780601f1062000ae05761010080835404028352916020019162000b0c565b820191906000526020600020905b81548152906001019060200180831162000aee57829003601f168201915b505050505081526020016003820154815260200160048201548152602001600582015481526020016006820160009054906101000a900460ff16600281111562000b7f577f4e487b7100000000000000000000000000000000000000000000000000000000600052602160045260246000fd5b600281111562000bb8577f4e487b7100000000000000000000000000000000000000000000000000000000600052602160045260246000fd5b815260200160078201805462000bce9062001672565b80601f016020809104026020016040519081016040528092919081815260200182805462000bfc9062001672565b801562000c4d5780601f1062000c215761010080835404028352916020019162000c4d565b820191906000526020600020905b81548152906001019060200180831162000c2f57829003601f168201915b505050505081526020016008820154815260200160098201548152602001600a82015481525050905062000caf604051806060016040528060268152602001620076f1602691398260200151836060015162000d9360201b62002a671760201c565b5060018162000cbf9190620015d5565b9050620005f1565b5062000cdf601562000e3c60201b62002b061760201c565b505050505050505062001760565b62000d8f828260405160240162000d0692919062001463565b6040516020818303038152906040527f4b5c4277000000000000000000000000000000000000000000000000000000007bffffffffffffffffffffffffffffffffffffffffffffffffffffffff19166020820180517bffffffffffffffffffffffffffffffffffffffffffffffffffffffff838183161783525050505062000e5260201b60201c565b5050565b62000e3783838360405160240162000dae939291906200149e565b6040516020818303038152906040527ff362ca59000000000000000000000000000000000000000000000000000000007bffffffffffffffffffffffffffffffffffffffffffffffffffffffff19166020820180517bffffffffffffffffffffffffffffffffffffffffffffffffffffffff838183161783525050505062000e5260201b60201c565b505050565b6001816000016000828254019250508190555050565b60008151905060006a636f6e736f6c652e6c6f679050602083016000808483855afa5050505050565b826005810192821562000ec2579160200282015b8281111562000ec157825182908051906020019062000eb092919062000f2f565b509160200191906001019062000e8f565b5b50905062000ed1919062000fc0565b5090565b82600a810192821562000f1c579160200282015b8281111562000f1b57825182908051906020019062000f0a92919062000f2f565b509160200191906001019062000ee9565b5b50905062000f2b919062000fc0565b5090565b82805462000f3d9062001672565b90600052602060002090601f01602090048101928262000f61576000855562000fad565b82601f1062000f7c57805160ff191683800117855562000fad565b8280016001018555821562000fad579182015b8281111562000fac57825182559160200191906001019062000f8f565b5b50905062000fbc919062000fe8565b5090565b5b8082111562000fe4576000818162000fda919062001007565b5060010162000fc1565b5090565b5b808211156200100357600081600090555060010162000fe9565b5090565b508054620010159062001672565b6000825580601f106200102957506200104a565b601f01602090049060005260206000209081019062001049919062000fe8565b5b50565b6000620010646200105e846200151d565b620014e9565b9050808382526020820190508260005b85811015620010a857815185016200108d8882620011c6565b84526020840193506020830192505060018101905062001074565b5050509392505050565b6000620010c9620010c3846200154c565b620014e9565b90508083825260208201905082856020860282011115620010e957600080fd5b60005b858110156200111d5781620011028882620011f3565b845260208401935060208301925050600181019050620010ec565b5050509392505050565b60006200113e62001138846200157b565b620014e9565b9050828152602081018484840111156200115757600080fd5b620011648482856200163c565b509392505050565b600082601f8301126200117e57600080fd5b8151620011908482602086016200104d565b91505092915050565b600082601f830112620011ab57600080fd5b8151620011bd848260208601620010b2565b91505092915050565b600082601f830112620011d857600080fd5b8151620011ea84826020860162001127565b91505092915050565b600081519050620012048162001746565b92915050565b600080600080600080600080610100898b0312156200122857600080fd5b600089015167ffffffffffffffff8111156200124357600080fd5b620012518b828c016200116c565b985050602089015167ffffffffffffffff8111156200126f57600080fd5b6200127d8b828c016200116c565b975050604089015167ffffffffffffffff8111156200129b57600080fd5b620012a98b828c0162001199565b965050606089015167ffffffffffffffff811115620012c757600080fd5b620012d58b828c0162001199565b955050608089015167ffffffffffffffff811115620012f357600080fd5b620013018b828c01620011c6565b94505060a089015167ffffffffffffffff8111156200131f57600080fd5b6200132d8b828c01620011c6565b93505060c0620013408b828c01620011f3565b92505060e0620013538b828c01620011f3565b9150509295985092959890939650565b60006200137082620015ae565b6200137c8185620015b9565b93506200138e8185602086016200163c565b620013998162001735565b840191505092915050565b6000620013b182620015ae565b620013bd8185620015ca565b9350620013cf8185602086016200163c565b80840191505092915050565b6000620013ea600183620015ca565b91507f20000000000000000000000000000000000000000000000000000000000000006000830152600182019050919050565b620014288162001632565b82525050565b60006200143c8285620013a4565b91506200144982620013db565b9150620014578284620013a4565b91508190509392505050565b600060408201905081810360008301526200147f818562001363565b9050818103602083015262001495818462001363565b90509392505050565b60006060820190508181036000830152620014ba818662001363565b90508181036020830152620014d0818562001363565b9050620014e160408301846200141d565b949350505050565b6000604051905081810181811067ffffffffffffffff8211171562001513576200151262001706565b5b8060405250919050565b600067ffffffffffffffff8211156200153b576200153a62001706565b5b602082029050602081019050919050565b600067ffffffffffffffff8211156200156a576200156962001706565b5b602082029050602081019050919050565b600067ffffffffffffffff82111562001599576200159862001706565b5b601f19601f8301169050602081019050919050565b600081519050919050565b600082825260208201905092915050565b600081905092915050565b6000620015e28262001632565b9150620015ef8362001632565b9250827fffffffffffffffffffffffffffffffffffffffffffffffffffffffffffffffff03821115620016275762001626620016a8565b5b828201905092915050565b6000819050919050565b60005b838110156200165c5780820151818401526020810190506200163f565b838111156200166c576000848401525b50505050565b600060028204905060018216806200168b57607f821691505b60208210811415620016a257620016a1620016d7565b5b50919050565b7f4e487b7100000000000000000000000000000000000000000000000000000000600052601160045260246000fd5b7f4e487b7100000000000000000000000000000000000000000000000000000000600052602260045260246000fd5b7f4e487b7100000000000000000000000000000000000000000000000000000000600052604160045260246000fd5b6000601f19601f8301169050919050565b620017518162001632565b81146200175d57600080fd5b50565b615f8180620017706000396000f3fe608060405234801561001057600080fd5b50600436106101735760003560e01c806395d89b41116100de578063b88d4fde11610097578063c87b56dd11610071578063c87b56dd146103fa578063c8cf27f41461042a578063e985e9c514610448578063f8b81ef71461047857610173565b8063b88d4fde146103b6578063b93dfd0d146103d2578063b953084e146103dc57610173565b806395d89b411461030c57806398da4c951461032a578063a22cb46514610364578063a5d88f9614610380578063a9c326791461038a578063b45adac1146103ac57610173565b806323b872dd1161013057806323b872dd1461023a5780633a3185d41461025657806342842e0e146102605780636352211e1461027c57806370a08231146102ac5780637df124a1146102dc57610173565b806301ffc9a7146101785780630665f961146101a857806306fdde03146101c6578063081812fc146101e4578063095ea7b3146102145780631b8237b014610230575b600080fd5b610192600480360381019061018d9190614266565b610494565b60405161019f919061540c565b60405180910390f35b6101b0610576565b6040516101bd91906157b4565b60405180910390f35b6101ce6106d2565b6040516101db9190615427565b60405180910390f35b6101fe60048036038101906101f991906142b8565b610764565b60405161020b9190615323565b60405180910390f35b61022e6004803603810190610229919061422a565b6107e9565b005b610238610901565b005b610254600480360381019061024f9190614124565b6109b3565b005b61025e610a13565b005b61027a60048036038101906102759190614124565b610ed1565b005b610296600480360381019061029191906142b8565b610ef1565b6040516102a39190615323565b60405180910390f35b6102c660048036038101906102c191906140bf565b610fa3565b6040516102d391906157f8565b60405180910390f35b6102f660048036038101906102f191906140bf565b61105b565b60405161030391906157f8565b60405180910390f35b610314611073565b6040516103219190615427565b60405180910390f35b610344600480360381019061033f91906142b8565b611105565b60405161035b9b9a99989796959493929190615813565b60405180910390f35b61037e600480360381019061037991906141ee565b611304565b005b610388611485565b005b610392611537565b6040516103a39594939291906154c5565b60405180910390f35b6103b461166b565b005b6103d060048036038101906103cb9190614173565b611882565b005b6103da6118e4565b005b6103e46119e5565b6040516103f191906153ea565b60405180910390f35b610414600480360381019061040f91906142b8565b611cc8565b6040516104219190615427565b60405180910390f35b6104326120b9565b60405161043f91906157d6565b60405180910390f35b610462600480360381019061045d91906140e8565b6123c9565b60405161046f919061540c565b60405180910390f35b610492600480360381019061048d91906142b8565b61245d565b005b60007f80ac58cd000000000000000000000000000000000000000000000000000000007bffffffffffffffffffffffffffffffffffffffffffffffffffffffff1916827bffffffffffffffffffffffffffffffffffffffffffffffffffffffff1916148061055f57507f5b5e139f000000000000000000000000000000000000000000000000000000007bffffffffffffffffffffffffffffffffffffffffffffffffffffffff1916827bffffffffffffffffffffffffffffffffffffffffffffffffffffffff1916145b8061056f575061056e82612b1c565b5b9050919050565b61057e613e8a565b60176040518060a001604052908160008201805461059b90615be8565b80601f01602080910402602001604051908101604052809291908181526020018280546105c790615be8565b80156106145780601f106105e957610100808354040283529160200191610614565b820191906000526020600020905b8154815290600101906020018083116105f757829003601f168201915b5050505050815260200160018201805461062d90615be8565b80601f016020809104026020016040519081016040528092919081815260200182805461065990615be8565b80156106a65780601f1061067b576101008083540402835291602001916106a6565b820191906000526020600020905b81548152906001019060200180831161068957829003601f168201915b505050505081526020016002820154815260200160038201548152602001600482015481525050905090565b6060600080546106e190615be8565b80601f016020809104026020016040519081016040528092919081815260200182805461070d90615be8565b801561075a5780601f1061072f5761010080835404028352916020019161075a565b820191906000526020600020905b81548152906001019060200180831161073d57829003601f168201915b5050505050905090565b600061076f82612b86565b6107ae576040517f08c379a00000000000000000000000000000000000000000000000000000000081526004016107a590615734565b60405180910390fd5b6004600083815260200190815260200160002060009054906101000a900473ffffffffffffffffffffffffffffffffffffffff169050919050565b60006107f482610ef1565b90508073ffffffffffffffffffffffffffffffffffffffff168373ffffffffffffffffffffffffffffffffffffffff161415610865576040517f08c379a000000000000000000000000000000000000000000000000000000000815260040161085c90615774565b60405180910390fd5b8073ffffffffffffffffffffffffffffffffffffffff16610884612bf2565b73ffffffffffffffffffffffffffffffffffffffff1614806108b357506108b2816108ad612bf2565b6123c9565b5b6108f2576040517f08c379a00000000000000000000000000000000000000000000000000000000081526004016108e990615694565b60405180910390fd5b6108fc8383612bfa565b505050565b6000601c60003373ffffffffffffffffffffffffffffffffffffffff1673ffffffffffffffffffffffffffffffffffffffff1681526020019081526020016000205490506000601d6000838152602001908152602001600020905060008160060160006101000a81548160ff021916908360028111156109aa577f4e487b7100000000000000000000000000000000000000000000000000000000600052602160045260246000fd5b02179055505050565b6109c46109be612bf2565b82612cb3565b610a03576040517f08c379a00000000000000000000000000000000000000000000000000000000081526004016109fa90615794565b60405180910390fd5b610a0e838383612d91565b505050565b6000601c60003373ffffffffffffffffffffffffffffffffffffffff1673ffffffffffffffffffffffffffffffffffffffff1681526020019081526020016000205490506000601d60008381526020019081526020016000209050610b1c6040518060600160405280602e8152602001615f1e602e9139826001018054610a9990615be8565b80601f0160208091040260200160405190810160405280929190818152602001828054610ac590615be8565b8015610b125780601f10610ae757610100808354040283529160200191610b12565b820191906000526020600020905b815481529060010190602001808311610af557829003601f168201915b50505050506129cb565b610be86040518060400160405280600f81526020017f2573206973206c697374656e696e67000000000000000000000000000000000081525060176000018054610b6590615be8565b80601f0160208091040260200160405190810160405280929190818152602001828054610b9190615be8565b8015610bde5780601f10610bb357610100808354040283529160200191610bde565b820191906000526020600020905b815481529060010190602001808311610bc157829003601f168201915b50505050506129cb565b6000816003015411610c2f576040517f08c379a0000000000000000000000000000000000000000000000000000000008152600401610c2690615714565b60405180910390fd5b600060176002015411610c77576040517f08c379a0000000000000000000000000000000000000000000000000000000008152600401610c6e90615594565b60405180910390fd5b806005015460176002015411610c97576000601760020181905550610cb6565b8060050154601760020154610cac9190615ad9565b6017600201819055505b610cdd604051806060016040528060258152602001615e3860259139601760020154612fed565b601760040154816003015411610d045760008160030181905550610cff6118e4565b610d48565b6017600401548160030154610d199190615ad9565b8160030181905550610d47604051806060016040528060288152602001615e9d602891398260030154612fed565b5b60006002811115610d82577f4e487b7100000000000000000000000000000000000000000000000000000000600052602160045260246000fd5b8160060160009054906101000a900460ff166002811115610dcc577f4e487b7100000000000000000000000000000000000000000000000000000000600052602160045260246000fd5b1415610e465760148160090154610de391906159f8565b8160090181905550610e296040518060400160405280602081526020017f436865636b206966206c6576656c20757020697320706f737369626c652e2e2e815250613089565b80600a0154816009015410610e4157610e40613122565b5b610e85565b610e846040518060400160405280601d81526020017f4e6f205850206761696e65642c20636175736520796f7520646965642e000000815250613089565b5b7fa8f68fa0afad68f1577a1c5c66c297b751442bbab5e98c25f07ee510a921558c60176002015482600301548360090154604051610ec5939291906158d3565b60405180910390a15050565b610eec83838360405180602001604052806000815250611882565b505050565b6000806002600084815260200190815260200160002060009054906101000a900473ffffffffffffffffffffffffffffffffffffffff169050600073ffffffffffffffffffffffffffffffffffffffff168173ffffffffffffffffffffffffffffffffffffffff161415610f9a576040517f08c379a0000000000000000000000000000000000000000000000000000000008152600401610f91906156d4565b60405180910390fd5b80915050919050565b60008073ffffffffffffffffffffffffffffffffffffffff168273ffffffffffffffffffffffffffffffffffffffff161415611014576040517f08c379a000000000000000000000000000000000000000000000000000000000815260040161100b906156b4565b60405180910390fd5b600360008373ffffffffffffffffffffffffffffffffffffffff1673ffffffffffffffffffffffffffffffffffffffff168152602001908152602001600020549050919050565b601c6020528060005260406000206000915090505481565b60606001805461108290615be8565b80601f01602080910402602001604051908101604052809291908181526020018280546110ae90615be8565b80156110fb5780601f106110d0576101008083540402835291602001916110fb565b820191906000526020600020905b8154815290600101906020018083116110de57829003601f168201915b5050505050905090565b601d60205280600052604060002060009150905080600001549080600101805461112e90615be8565b80601f016020809104026020016040519081016040528092919081815260200182805461115a90615be8565b80156111a75780601f1061117c576101008083540402835291602001916111a7565b820191906000526020600020905b81548152906001019060200180831161118a57829003601f168201915b5050505050908060020180546111bc90615be8565b80601f01602080910402602001604051908101604052809291908181526020018280546111e890615be8565b80156112355780601f1061120a57610100808354040283529160200191611235565b820191906000526020600020905b81548152906001019060200180831161121857829003601f168201915b5050505050908060030154908060040154908060050154908060060160009054906101000a900460ff169080600701805461126f90615be8565b80601f016020809104026020016040519081016040528092919081815260200182805461129b90615be8565b80156112e85780601f106112bd576101008083540402835291602001916112e8565b820191906000526020600020905b8154815290600101906020018083116112cb57829003601f168201915b50505050509080600801549080600901549080600a015490508b565b61130c612bf2565b73ffffffffffffffffffffffffffffffffffffffff168273ffffffffffffffffffffffffffffffffffffffff16141561137a576040517f08c379a000000000000000000000000000000000000000000000000000000000815260040161137190615634565b60405180910390fd5b8060056000611387612bf2565b73ffffffffffffffffffffffffffffffffffffffff1673ffffffffffffffffffffffffffffffffffffffff16815260200190815260200160002060008473ffffffffffffffffffffffffffffffffffffffff1673ffffffffffffffffffffffffffffffffffffffff16815260200190815260200160002060006101000a81548160ff0219169083151502179055508173ffffffffffffffffffffffffffffffffffffffff16611434612bf2565b73ffffffffffffffffffffffffffffffffffffffff167f17307eab39ab6107e8899845ad3d59bd9653f200f220920489ca2b5937696c3183604051611479919061540c565b60405180910390a35050565b6000601c60003373ffffffffffffffffffffffffffffffffffffffff1673ffffffffffffffffffffffffffffffffffffffff1681526020019081526020016000205490506000601d6000838152602001908152602001600020905060028160060160006101000a81548160ff0219169083600281111561152e577f4e487b7100000000000000000000000000000000000000000000000000000000600052602160045260246000fd5b02179055505050565b601780600001805461154890615be8565b80601f016020809104026020016040519081016040528092919081815260200182805461157490615be8565b80156115c15780601f10611596576101008083540402835291602001916115c1565b820191906000526020600020905b8154815290600101906020018083116115a457829003601f168201915b5050505050908060010180546115d690615be8565b80601f016020809104026020016040519081016040528092919081815260200182805461160290615be8565b801561164f5780601f106116245761010080835404028352916020019161164f565b820191906000526020600020905b81548152906001019060200180831161163257829003601f168201915b5050505050908060020154908060030154908060040154905085565b6000601c60003373ffffffffffffffffffffffffffffffffffffffff1673ffffffffffffffffffffffffffffffffffffffff1681526020019081526020016000205490506000601d60008381526020019081526020016000209050600081600301541461170d576040517f08c379a0000000000000000000000000000000000000000000000000000000008152600401611704906155f4565b60405180910390fd5b6117d86040518060400160405280601881526020017f526576697665206f6620257320696e2070726f6772657373000000000000000081525082600101805461175590615be8565b80601f016020809104026020016040519081016040528092919081815260200182805461178190615be8565b80156117ce5780601f106117a3576101008083540402835291602001916117ce565b820191906000526020600020905b8154815290600101906020018083116117b157829003601f168201915b50505050506129cb565b806004015481600301819055506117ed610901565b6118456040518060400160405280601981526020017f506c6179657220697320696e206c6966657374617465202573000000000000008152506118408360060160009054906101000a900460ff1661338f565b6129cb565b7f9b9bc6bdc899cb8e3a6246997aaa1528b6ff4ce2ab4e409612d0adff427837a1338360405161187692919061538a565b60405180910390a15050565b61189361188d612bf2565b83612cb3565b6118d2576040517f08c379a00000000000000000000000000000000000000000000000000000000081526004016118c990615794565b60405180910390fd5b6118de848484846135ca565b50505050565b6000601c60003373ffffffffffffffffffffffffffffffffffffffff1673ffffffffffffffffffffffffffffffffffffffff1681526020019081526020016000205490506000601d6000838152602001908152602001600020905060018160060160006101000a81548160ff0219169083600281111561198d577f4e487b7100000000000000000000000000000000000000000000000000000000600052602160045260246000fd5b0217905550813373ffffffffffffffffffffffffffffffffffffffff167fc8968f503520c1afad599a7dfae411cd9df00244a45c2a68e4062cacc1bbf99e426040516119d991906157f8565b60405180910390a35050565b60606016805480602002602001604051908101604052809291908181526020016000905b82821015611cbf57838290600052602060002090600b02016040518061016001604052908160008201548152602001600182018054611a4790615be8565b80601f0160208091040260200160405190810160405280929190818152602001828054611a7390615be8565b8015611ac05780601f10611a9557610100808354040283529160200191611ac0565b820191906000526020600020905b815481529060010190602001808311611aa357829003601f168201915b50505050508152602001600282018054611ad990615be8565b80601f0160208091040260200160405190810160405280929190818152602001828054611b0590615be8565b8015611b525780601f10611b2757610100808354040283529160200191611b52565b820191906000526020600020905b815481529060010190602001808311611b3557829003601f168201915b505050505081526020016003820154815260200160048201548152602001600582015481526020016006820160009054906101000a900460ff166002811115611bc4577f4e487b7100000000000000000000000000000000000000000000000000000000600052602160045260246000fd5b6002811115611bfc577f4e487b7100000000000000000000000000000000000000000000000000000000600052602160045260246000fd5b8152602001600782018054611c1090615be8565b80601f0160208091040260200160405190810160405280929190818152602001828054611c3c90615be8565b8015611c895780601f10611c5e57610100808354040283529160200191611c89565b820191906000526020600020905b815481529060010190602001808311611c6c57829003601f168201915b505050505081526020016008820154815260200160098201548152602001600a8201548152505081526020019060010190611a09565b50505050905090565b60606000601d60008481526020019081526020016000206040518061016001604052908160008201548152602001600182018054611d0590615be8565b80601f0160208091040260200160405190810160405280929190818152602001828054611d3190615be8565b8015611d7e5780601f10611d5357610100808354040283529160200191611d7e565b820191906000526020600020905b815481529060010190602001808311611d6157829003601f168201915b50505050508152602001600282018054611d9790615be8565b80601f0160208091040260200160405190810160405280929190818152602001828054611dc390615be8565b8015611e105780601f10611de557610100808354040283529160200191611e10565b820191906000526020600020905b815481529060010190602001808311611df357829003601f168201915b505050505081526020016003820154815260200160048201548152602001600582015481526020016006820160009054906101000a900460ff166002811115611e82577f4e487b7100000000000000000000000000000000000000000000000000000000600052602160045260246000fd5b6002811115611eba577f4e487b7100000000000000000000000000000000000000000000000000000000600052602160045260246000fd5b8152602001600782018054611ece90615be8565b80601f0160208091040260200160405190810160405280929190818152602001828054611efa90615be8565b8015611f475780601f10611f1c57610100808354040283529160200191611f47565b820191906000526020600020905b815481529060010190602001808311611f2a57829003601f168201915b505050505081526020016008820154815260200160098201548152602001600a8201548152505090506000611f7f8260600151613626565b90506000611f908360800151613626565b90506000611fa18460a00151613626565b90506000611fb3856101200151613626565b90506000611fc5866101400151613626565b90506000611fd7876101000151613626565b90506000611fe88860c0015161338f565b905060008860e00151905060006120418a602001516120068e613626565b8c60400151878a8a8f8f8f8c8c60405160200161202d9b9a999897969594939291906151e4565b6040516020818303038152906040526137d3565b90506120826040518060400160405280600581526020017f4a534f4e3a000000000000000000000000000000000000000000000000000000815250826129cb565b6000816040516020016120959190615301565b6040516020818303038152906040529050809b505050505050505050505050919050565b6120c1613eb9565b6000601c60003373ffffffffffffffffffffffffffffffffffffffff1673ffffffffffffffffffffffffffffffffffffffff16815260200190815260200160002054905060008111156123b857601d6000828152602001908152602001600020604051806101600160405290816000820154815260200160018201805461214790615be8565b80601f016020809104026020016040519081016040528092919081815260200182805461217390615be8565b80156121c05780601f10612195576101008083540402835291602001916121c0565b820191906000526020600020905b8154815290600101906020018083116121a357829003601f168201915b505050505081526020016002820180546121d990615be8565b80601f016020809104026020016040519081016040528092919081815260200182805461220590615be8565b80156122525780601f1061222757610100808354040283529160200191612252565b820191906000526020600020905b81548152906001019060200180831161223557829003601f168201915b505050505081526020016003820154815260200160048201548152602001600582015481526020016006820160009054906101000a900460ff1660028111156122c4577f4e487b7100000000000000000000000000000000000000000000000000000000600052602160045260246000fd5b60028111156122fc577f4e487b7100000000000000000000000000000000000000000000000000000000600052602160045260246000fd5b815260200160078201805461231090615be8565b80601f016020809104026020016040519081016040528092919081815260200182805461233c90615be8565b80156123895780601f1061235e57610100808354040283529160200191612389565b820191906000526020600020905b81548152906001019060200180831161236c57829003601f168201915b505050505081526020016008820154815260200160098201548152602001600a820154815250509150506123c6565b6123c0613eb9565b80925050505b90565b6000600560008473ffffffffffffffffffffffffffffffffffffffff1673ffffffffffffffffffffffffffffffffffffffff16815260200190815260200160002060008373ffffffffffffffffffffffffffffffffffffffff1673ffffffffffffffffffffffffffffffffffffffff16815260200190815260200160002060009054906101000a900460ff16905092915050565b60006124696015613991565b9050612475338261399f565b604051806101600160405280838152602001601684815481106124c1577f4e487b7100000000000000000000000000000000000000000000000000000000600052603260045260246000fd5b90600052602060002090600b020160010180546124dd90615be8565b80601f016020809104026020016040519081016040528092919081815260200182805461250990615be8565b80156125565780601f1061252b57610100808354040283529160200191612556565b820191906000526020600020905b81548152906001019060200180831161253957829003601f168201915b505050505081526020016016848154811061259a577f4e487b7100000000000000000000000000000000000000000000000000000000600052603260045260246000fd5b90600052602060002090600b020160020180546125b690615be8565b80601f01602080910402602001604051908101604052809291908181526020018280546125e290615be8565b801561262f5780601f106126045761010080835404028352916020019161262f565b820191906000526020600020905b81548152906001019060200180831161261257829003601f168201915b5050505050815260200160168481548110612673577f4e487b7100000000000000000000000000000000000000000000000000000000600052603260045260246000fd5b90600052602060002090600b0201600301548152602001601684815481106126c4577f4e487b7100000000000000000000000000000000000000000000000000000000600052603260045260246000fd5b90600052602060002090600b020160040154815260200160168481548110612715577f4e487b7100000000000000000000000000000000000000000000000000000000600052603260045260246000fd5b90600052602060002090600b020160050154815260200160006002811115612766577f4e487b7100000000000000000000000000000000000000000000000000000000600052602160045260246000fd5b81526020016040518060400160405280600681526020017f6a756e696f7200000000000000000000000000000000000000000000000000008152506040518060400160405280600781526020017f747261696e6565000000000000000000000000000000000000000000000000008152506040516020016127e89291906151b5565b60405160208183030381529060405281526020016001815260200160008152602001601e815250601d6000838152602001908152602001600020600082015181600001556020820151816001019080519060200190612848929190613f4b565b506040820151816002019080519060200190612865929190613f4b565b50606082015181600301556080820151816004015560a0820151816005015560c08201518160060160006101000a81548160ff021916908360028111156128d5577f4e487b7100000000000000000000000000000000000000000000000000000000600052602160045260246000fd5b021790555060e08201518160070190805190602001906128f6929190613f4b565b506101008201518160080155610120820151816009015561014082015181600a015590505061293e604051806060016040528060308152602001615eee6030913982846139bd565b80601c60003373ffffffffffffffffffffffffffffffffffffffff1673ffffffffffffffffffffffffffffffffffffffff1681526020019081526020016000208190555061298c6015612b06565b7f4bc303fd457a97b4691b9af582ce71868a3d258638c8d4f8c60988a0f0bfb8cd3382846040516129bf939291906153b3565b60405180910390a15050565b612a6382826040516024016129e1929190615449565b6040516020818303038152906040527f4b5c4277000000000000000000000000000000000000000000000000000000007bffffffffffffffffffffffffffffffffffffffffffffffffffffffff19166020820180517bffffffffffffffffffffffffffffffffffffffffffffffffffffffff8381831617835250505050613a5c565b5050565b612b01838383604051602401612a7f93929190615480565b6040516020818303038152906040527ff362ca59000000000000000000000000000000000000000000000000000000007bffffffffffffffffffffffffffffffffffffffffffffffffffffffff19166020820180517bffffffffffffffffffffffffffffffffffffffffffffffffffffffff8381831617835250505050613a5c565b505050565b6001816000016000828254019250508190555050565b60007f01ffc9a7000000000000000000000000000000000000000000000000000000007bffffffffffffffffffffffffffffffffffffffffffffffffffffffff1916827bffffffffffffffffffffffffffffffffffffffffffffffffffffffff1916149050919050565b60008073ffffffffffffffffffffffffffffffffffffffff166002600084815260200190815260200160002060009054906101000a900473ffffffffffffffffffffffffffffffffffffffff1673ffffffffffffffffffffffffffffffffffffffff1614159050919050565b600033905090565b816004600083815260200190815260200160002060006101000a81548173ffffffffffffffffffffffffffffffffffffffff021916908373ffffffffffffffffffffffffffffffffffffffff160217905550808273ffffffffffffffffffffffffffffffffffffffff16612c6d83610ef1565b73ffffffffffffffffffffffffffffffffffffffff167f8c5be1e5ebec7d5bd14f71427d1e84f3dd0314c0f7b2291e5b200ac8c7c3b92560405160405180910390a45050565b6000612cbe82612b86565b612cfd576040517f08c379a0000000000000000000000000000000000000000000000000000000008152600401612cf490615654565b60405180910390fd5b6000612d0883610ef1565b90508073ffffffffffffffffffffffffffffffffffffffff168473ffffffffffffffffffffffffffffffffffffffff161480612d7757508373ffffffffffffffffffffffffffffffffffffffff16612d5f84610764565b73ffffffffffffffffffffffffffffffffffffffff16145b80612d885750612d8781856123c9565b5b91505092915050565b8273ffffffffffffffffffffffffffffffffffffffff16612db182610ef1565b73ffffffffffffffffffffffffffffffffffffffff1614612e07576040517f08c379a0000000000000000000000000000000000000000000000000000000008152600401612dfe90615754565b60405180910390fd5b600073ffffffffffffffffffffffffffffffffffffffff168273ffffffffffffffffffffffffffffffffffffffff161415612e77576040517f08c379a0000000000000000000000000000000000000000000000000000000008152600401612e6e90615614565b60405180910390fd5b612e82838383613a85565b612e8d600082612bfa565b6001600360008573ffffffffffffffffffffffffffffffffffffffff1673ffffffffffffffffffffffffffffffffffffffff1681526020019081526020016000206000828254612edd9190615ad9565b925050819055506001600360008473ffffffffffffffffffffffffffffffffffffffff1673ffffffffffffffffffffffffffffffffffffffff1681526020019081526020016000206000828254612f3491906159f8565b92505081905550816002600083815260200190815260200160002060006101000a81548173ffffffffffffffffffffffffffffffffffffffff021916908373ffffffffffffffffffffffffffffffffffffffff160217905550808273ffffffffffffffffffffffffffffffffffffffff168473ffffffffffffffffffffffffffffffffffffffff167fddf252ad1be2c89b69c2b068fc378daa952ba7f163c4a11628f55a4df523b3ef60405160405180910390a4505050565b6130858282604051602401613003929190615526565b6040516020818303038152906040527f9710a9d0000000000000000000000000000000000000000000000000000000007bffffffffffffffffffffffffffffffffffffffffffffffffffffffff19166020820180517bffffffffffffffffffffffffffffffffffffffffffffffffffffffff8381831617835250505050613a5c565b5050565b61311f8160405160240161309d9190615427565b6040516020818303038152906040527f41304fac000000000000000000000000000000000000000000000000000000007bffffffffffffffffffffffffffffffffffffffffffffffffffffffff19166020820180517bffffffffffffffffffffffffffffffffffffffffffffffffffffffff8381831617835250505050613a5c565b50565b6000601c60003373ffffffffffffffffffffffffffffffffffffffff1673ffffffffffffffffffffffffffffffffffffffff1681526020019081526020016000205490506000601d6000838152602001908152602001600020905080600a0154816009015410156131c8576040517f08c379a00000000000000000000000000000000000000000000000000000000081526004016131bf90615674565b60405180910390fd5b6132066040518060400160405280601581526020017f4c6576656c20757020696e2070726f6772657373210000000000000000000000815250613089565b6132496040518060400160405280601181526020017f43757272656e74206c6576656c3a2025730000000000000000000000000000008152508260080154612fed565b600081600901819055506019816004015461326491906159f8565b8160040181905550806004015481600301819055506019816005015461328a91906159f8565b816005018190555061329f8160080154613a8a565b81600a0181905550600181600801546132b891906159f8565b81600801819055506132c8610901565b61330b6040518060400160405280601881526020017f596f7520617265206e6f77206f6e206c6576656c2025732e00000000000000008152508260080154612fed565b613331604051806060016040528060298152602001615ec56029913982600a0154612fed565b613352604051806060016040528060378152602001615e0160379139613089565b7fcbadce0717dab60d3dc2a5a3641c2cac2fb6487782b4a9726ea97d47ca9913ff338360405161338392919061538a565b60405180910390a15050565b60608160028111156133ca577f4e487b7100000000000000000000000000000000000000000000000000000000600052602160045260246000fd5b60006002811115613404577f4e487b7100000000000000000000000000000000000000000000000000000000600052602160045260246000fd5b1415613447576040518060400160405280600581526020017f414c49564500000000000000000000000000000000000000000000000000000081525090506135c5565b816002811115613480577f4e487b7100000000000000000000000000000000000000000000000000000000600052602160045260246000fd5b6002808111156134b9577f4e487b7100000000000000000000000000000000000000000000000000000000600052602160045260246000fd5b14156134fc576040518060400160405280600481526020017f574f524b0000000000000000000000000000000000000000000000000000000081525090506135c5565b816002811115613535577f4e487b7100000000000000000000000000000000000000000000000000000000600052602160045260246000fd5b6001600281111561356f577f4e487b7100000000000000000000000000000000000000000000000000000000600052602160045260246000fd5b14156135b2576040518060400160405280600481526020017f444541440000000000000000000000000000000000000000000000000000000081525090506135c5565b6040518060200160405280600081525090505b919050565b6135d5848484612d91565b6135e184848484613ab7565b613620576040517f08c379a0000000000000000000000000000000000000000000000000000000008152600401613617906155b4565b60405180910390fd5b50505050565b6060600082141561366e576040518060400160405280600181526020017f300000000000000000000000000000000000000000000000000000000000000081525090506137ce565b600082905060005b600082146136a057808061368990615c1a565b915050600a826136999190615a4e565b9150613676565b60008167ffffffffffffffff8111156136e2577f4e487b7100000000000000000000000000000000000000000000000000000000600052604160045260246000fd5b6040519080825280601f01601f1916602001820160405280156137145781602001600182028036833780820191505090505b5090505b600085146137c75760018261372d9190615ad9565b9150600a8561373c9190615c63565b603061374891906159f8565b60f81b818381518110613784577f4e487b7100000000000000000000000000000000000000000000000000000000600052603260045260246000fd5b60200101907effffffffffffffffffffffffffffffffffffffffffffffffffffffffffffff1916908160001a905350600a856137c09190615a4e565b9450613718565b8093505050505b919050565b606060008251905060008114156137fc576040518060200160405280600081525091505061398c565b6000600360028361380d91906159f8565b6138179190615a4e565b60046138239190615a7f565b9050600060208261383491906159f8565b67ffffffffffffffff811115613873577f4e487b7100000000000000000000000000000000000000000000000000000000600052604160045260246000fd5b6040519080825280601f01601f1916602001820160405280156138a55781602001600182028036833780820191505090505b5090506000604051806060016040528060408152602001615e5d604091399050600181016020830160005b868110156139495760038101905062ffffff818a015116603f8160121c168401518060081b905060ff603f83600c1c1686015116810190508060081b905060ff603f8360061c1686015116810190508060081b905060ff603f831686015116810190508060e01b905080845260048401935050506138d0565b50600386066001811461396357600281146139735761397e565b613d3d60f01b600283035261397e565b603d60f81b60018303525b508484525050819450505050505b919050565b600081600001549050919050565b6139b9828260405180602001604052806000815250613c4e565b5050565b613a578383836040516024016139d593929190615556565b6040516020818303038152906040527f969cdd03000000000000000000000000000000000000000000000000000000007bffffffffffffffffffffffffffffffffffffffffffffffffffffffff19166020820180517bffffffffffffffffffffffffffffffffffffffffffffffffffffffff8381831617835250505050613a5c565b505050565b60008151905060006a636f6e736f6c652e6c6f679050602083016000808483855afa5050505050565b505050565b6000601e600183613a9b91906159f8565b83613aa691906159f8565b613ab09190615a7f565b9050919050565b6000613ad88473ffffffffffffffffffffffffffffffffffffffff16613ca9565b15613c41578373ffffffffffffffffffffffffffffffffffffffff1663150b7a02613b01612bf2565b8786866040518563ffffffff1660e01b8152600401613b23949392919061533e565b602060405180830381600087803b158015613b3d57600080fd5b505af1925050508015613b6e57506040513d601f19601f82011682018060405250810190613b6b919061428f565b60015b613bf1573d8060008114613b9e576040519150601f19603f3d011682016040523d82523d6000602084013e613ba3565b606091505b50600081511415613be9576040517f08c379a0000000000000000000000000000000000000000000000000000000008152600401613be0906155b4565b60405180910390fd5b805181602001fd5b63150b7a0260e01b7bffffffffffffffffffffffffffffffffffffffffffffffffffffffff1916817bffffffffffffffffffffffffffffffffffffffffffffffffffffffff191614915050613c46565b600190505b949350505050565b613c588383613cbc565b613c656000848484613ab7565b613ca4576040517f08c379a0000000000000000000000000000000000000000000000000000000008152600401613c9b906155b4565b60405180910390fd5b505050565b600080823b905060008111915050919050565b600073ffffffffffffffffffffffffffffffffffffffff168273ffffffffffffffffffffffffffffffffffffffff161415613d2c576040517f08c379a0000000000000000000000000000000000000000000000000000000008152600401613d23906156f4565b60405180910390fd5b613d3581612b86565b15613d75576040517f08c379a0000000000000000000000000000000000000000000000000000000008152600401613d6c906155d4565b60405180910390fd5b613d8160008383613a85565b6001600360008473ffffffffffffffffffffffffffffffffffffffff1673ffffffffffffffffffffffffffffffffffffffff1681526020019081526020016000206000828254613dd191906159f8565b92505081905550816002600083815260200190815260200160002060006101000a81548173ffffffffffffffffffffffffffffffffffffffff021916908373ffffffffffffffffffffffffffffffffffffffff160217905550808273ffffffffffffffffffffffffffffffffffffffff16600073ffffffffffffffffffffffffffffffffffffffff167fddf252ad1be2c89b69c2b068fc378daa952ba7f163c4a11628f55a4df523b3ef60405160405180910390a45050565b6040518060a0016040528060608152602001606081526020016000815260200160008152602001600081525090565b60405180610160016040528060008152602001606081526020016060815260200160008152602001600081526020016000815260200160006002811115613f29577f4e487b7100000000000000000000000000000000000000000000000000000000600052602160045260246000fd5b8152602001606081526020016000815260200160008152602001600081525090565b828054613f5790615be8565b90600052602060002090601f016020900481019282613f795760008555613fc0565b82601f10613f9257805160ff1916838001178555613fc0565b82800160010185558215613fc0579182015b82811115613fbf578251825591602001919060010190613fa4565b5b509050613fcd9190613fd1565b5090565b5b80821115613fea576000816000905550600101613fd2565b5090565b6000614001613ffc8461593b565b61590a565b90508281526020810184848401111561401957600080fd5b614024848285615ba6565b509392505050565b60008135905061403b81615da4565b92915050565b60008135905061405081615dbb565b92915050565b60008135905061406581615dd2565b92915050565b60008151905061407a81615dd2565b92915050565b600082601f83011261409157600080fd5b81356140a1848260208601613fee565b91505092915050565b6000813590506140b981615de9565b92915050565b6000602082840312156140d157600080fd5b60006140df8482850161402c565b91505092915050565b600080604083850312156140fb57600080fd5b60006141098582860161402c565b925050602061411a8582860161402c565b9150509250929050565b60008060006060848603121561413957600080fd5b60006141478682870161402c565b93505060206141588682870161402c565b9250506040614169868287016140aa565b9150509250925092565b6000806000806080858703121561418957600080fd5b60006141978782880161402c565b94505060206141a88782880161402c565b93505060406141b9878288016140aa565b925050606085013567ffffffffffffffff8111156141d657600080fd5b6141e287828801614080565b91505092959194509250565b6000806040838503121561420157600080fd5b600061420f8582860161402c565b925050602061422085828601614041565b9150509250929050565b6000806040838503121561423d57600080fd5b600061424b8582860161402c565b925050602061425c858286016140aa565b9150509250929050565b60006020828403121561427857600080fd5b600061428684828501614056565b91505092915050565b6000602082840312156142a157600080fd5b60006142af8482850161406b565b91505092915050565b6000602082840312156142ca57600080fd5b60006142d8848285016140aa565b91505092915050565b60006142ed8383614f9d565b905092915050565b6142fe81615b0d565b82525050565b600061430f8261597b565b61431981856159a9565b93508360208202850161432b8561596b565b8060005b85811015614367578484038952815161434885826142e1565b94506143538361599c565b925060208a0199505060018101905061432f565b50829750879550505050505092915050565b61438281615b1f565b82525050565b600061439382615986565b61439d81856159ba565b93506143ad818560208601615bb5565b6143b681615d7f565b840191505092915050565b6143ca81615b94565b82525050565b6143d981615b94565b82525050565b60006143ea82615991565b6143f481856159cb565b9350614404818560208601615bb5565b61440d81615d7f565b840191505092915050565b600061442382615991565b61442d81856159dc565b935061443d818560208601615bb5565b61444681615d7f565b840191505092915050565b600061445c82615991565b61446681856159ed565b9350614476818560208601615bb5565b80840191505092915050565b600061448f6028836159dc565b91507f4572726f723a20626f737320616c72656164792061677265656420796f75722060008301527f726571756573742e0000000000000000000000000000000000000000000000006020830152604082019050919050565b60006144f5600b836159ed565b91507f202d2d204e465420233a200000000000000000000000000000000000000000006000830152600b82019050919050565b60006145356035836159ed565b91507f222c20226465736372697074696f6e223a202254727920746f20676574206d6f60008301527f7265204d6f6e6579222c2022696d616765223a202200000000000000000000006020830152603582019050919050565b600061459b6005836159ed565b91507f227d205d7d0000000000000000000000000000000000000000000000000000006000830152600582019050919050565b60006145db602d836159ed565b91507f7d2c7b202274726169745f74797065223a202243757272656e7420537461746560008301527f222c202276616c7565223a2022000000000000000000000000000000000000006020830152602d82019050919050565b60006146416032836159dc565b91507f4552433732313a207472616e7366657220746f206e6f6e20455243373231526560008301527f63656976657220696d706c656d656e74657200000000000000000000000000006020830152604082019050919050565b60006146a7601c836159dc565b91507f4552433732313a20746f6b656e20616c7265616479206d696e746564000000006000830152602082019050919050565b60006146e7600e836159ed565b91507f2c20226d61785f76616c7565223a0000000000000000000000000000000000006000830152600e82019050919050565b60006147276024836159dc565b91507f526576697665206f6e6c7920706f737369626c6520696620796f75206172652060008301527f64656164000000000000000000000000000000000000000000000000000000006020830152604082019050919050565b600061478d6024836159dc565b91507f4552433732313a207472616e7366657220746f20746865207a65726f2061646460008301527f72657373000000000000000000000000000000000000000000000000000000006020830152604082019050919050565b60006147f36019836159dc565b91507f4552433732313a20617070726f766520746f2063616c6c6572000000000000006000830152602082019050919050565b6000614833602f836159ed565b91507f7d2c207b202274726169745f74797065223a202250657273756173696f6e286160008301527f746b29222c202276616c7565223a2000000000000000000000000000000000006020830152602f82019050919050565b6000614899602c836159dc565b91507f4552433732313a206f70657261746f7220717565727920666f72206e6f6e657860008301527f697374656e7420746f6b656e00000000000000000000000000000000000000006020830152604082019050919050565b60006148ff6001836159ed565b91507f20000000000000000000000000000000000000000000000000000000000000006000830152600182019050919050565b600061493f601d836159dc565b91507f4e6f7420656e6f75676820585020746f20676574206c6576656c2075700000006000830152602082019050919050565b600061497f6038836159dc565b91507f4552433732313a20617070726f76652063616c6c6572206973206e6f74206f7760008301527f6e6572206e6f7220617070726f76656420666f7220616c6c00000000000000006020830152604082019050919050565b60006149e5602a836159dc565b91507f4552433732313a2062616c616e636520717565727920666f7220746865207a6560008301527f726f2061646472657373000000000000000000000000000000000000000000006020830152604082019050919050565b6000614a4b6029836159dc565b91507f4552433732313a206f776e657220717565727920666f72206e6f6e657869737460008301527f656e7420746f6b656e00000000000000000000000000000000000000000000006020830152604082019050919050565b6000614ab1602d836159ed565b91507f7d2c207b202274726169745f74797065223a2022417267756d656e747328687060008301527f29222c202276616c7565223a20000000000000000000000000000000000000006020830152602d82019050919050565b6000614b176020836159dc565b91507f4552433732313a206d696e7420746f20746865207a65726f20616464726573736000830152602082019050919050565b6000614b576041836159dc565b91507f4572726f723a20636861726163746572206d757374206861766520617267756d60008301527f656e747320746f20726571756573742073616c61727920696e6372656173736560208301527f2e000000000000000000000000000000000000000000000000000000000000006040830152606082019050919050565b6000614be3602c836159dc565b91507f4552433732313a20617070726f76656420717565727920666f72206e6f6e657860008301527f697374656e7420746f6b656e00000000000000000000000000000000000000006020830152604082019050919050565b6000614c496029836159dc565b91507f4552433732313a207472616e73666572206f6620746f6b656e2074686174206960008301527f73206e6f74206f776e00000000000000000000000000000000000000000000006020830152604082019050919050565b6000614caf6035836159ed565b91507f222c202261747472696275746573223a205b207b202274726169745f7479706560008301527f223a20224c6576656c222c202276616c7565223a2000000000000000000000006020830152603582019050919050565b6000614d15600a836159ed565b91507f7b226e616d65223a2022000000000000000000000000000000000000000000006000830152600a82019050919050565b6000614d556021836159dc565b91507f4552433732313a20617070726f76616c20746f2063757272656e74206f776e6560008301527f72000000000000000000000000000000000000000000000000000000000000006020830152604082019050919050565b6000614dbb601d836159ed565b91507f646174613a6170706c69636174696f6e2f6a736f6e3b6261736536342c0000006000830152601d82019050919050565b6000614dfb6031836159dc565b91507f4552433732313a207472616e736665722063616c6c6572206973206e6f74206f60008301527f776e6572206e6f7220617070726f7665640000000000000000000000000000006020830152604082019050919050565b6000614e61602a836159ed565b91507f227d2c7b202274726169745f74797065223a20224a6f62207469746c65222c2060008301527f2276616c7565223a2022000000000000000000000000000000000000000000006020830152602a82019050919050565b6000614ec7602a836159ed565b91507f7d2c207b202274726169745f74797065223a2022457870657269656e6365222c60008301527f202276616c7565223a20000000000000000000000000000000000000000000006020830152602a82019050919050565b600060a0830160008301518482036000860152614f3d82826143df565b91505060208301518482036020860152614f5782826143df565b9150506040830151614f6c6040860182615197565b506060830151614f7f6060860182615197565b506080830151614f926080860182615197565b508091505092915050565b600061016083016000830151614fb66000860182615197565b5060208301518482036020860152614fce82826143df565b91505060408301518482036040860152614fe882826143df565b9150506060830151614ffd6060860182615197565b5060808301516150106080860182615197565b5060a083015161502360a0860182615197565b5060c083015161503660c08601826143c1565b5060e083015184820360e086015261504e82826143df565b915050610100830151615065610100860182615197565b5061012083015161507a610120860182615197565b5061014083015161508f610140860182615197565b508091505092915050565b6000610160830160008301516150b36000860182615197565b50602083015184820360208601526150cb82826143df565b915050604083015184820360408601526150e582826143df565b91505060608301516150fa6060860182615197565b50608083015161510d6080860182615197565b5060a083015161512060a0860182615197565b5060c083015161513360c08601826143c1565b5060e083015184820360e086015261514b82826143df565b915050610100830151615162610100860182615197565b50610120830151615177610120860182615197565b5061014083015161518c610140860182615197565b508091505092915050565b6151a081615b8a565b82525050565b6151af81615b8a565b82525050565b60006151c18285614451565b91506151cc826148f2565b91506151d88284614451565b91508190509392505050565b60006151ef82614d08565b91506151fb828e614451565b9150615206826144e8565b9150615212828d614451565b915061521d82614528565b9150615229828c614451565b915061523482614ca2565b9150615240828b614451565b915061524b82614eba565b9150615257828a614451565b9150615262826146da565b915061526e8289614451565b915061527982614aa4565b91506152858288614451565b9150615290826146da565b915061529c8287614451565b91506152a782614826565b91506152b38286614451565b91506152be826145ce565b91506152ca8285614451565b91506152d582614e54565b91506152e18284614451565b91506152ec8261458e565b91508190509c9b505050505050505050505050565b600061530c82614dae565b91506153188284614451565b915081905092915050565b600060208201905061533860008301846142f5565b92915050565b600060808201905061535360008301876142f5565b61536060208301866142f5565b61536d60408301856151a6565b818103606083015261537f8184614388565b905095945050505050565b600060408201905061539f60008301856142f5565b6153ac60208301846151a6565b9392505050565b60006060820190506153c860008301866142f5565b6153d560208301856151a6565b6153e260408301846151a6565b949350505050565b600060208201905081810360008301526154048184614304565b905092915050565b60006020820190506154216000830184614379565b92915050565b600060208201905081810360008301526154418184614418565b905092915050565b600060408201905081810360008301526154638185614418565b905081810360208301526154778184614418565b90509392505050565b6000606082019050818103600083015261549a8186614418565b905081810360208301526154ae8185614418565b90506154bd60408301846151a6565b949350505050565b600060a08201905081810360008301526154df8188614418565b905081810360208301526154f38187614418565b905061550260408301866151a6565b61550f60608301856151a6565b61551c60808301846151a6565b9695505050505050565b600060408201905081810360008301526155408185614418565b905061554f60208301846151a6565b9392505050565b600060608201905081810360008301526155708186614418565b905061557f60208301856151a6565b61558c60408301846151a6565b949350505050565b600060208201905081810360008301526155ad81614482565b9050919050565b600060208201905081810360008301526155cd81614634565b9050919050565b600060208201905081810360008301526155ed8161469a565b9050919050565b6000602082019050818103600083015261560d8161471a565b9050919050565b6000602082019050818103600083015261562d81614780565b9050919050565b6000602082019050818103600083015261564d816147e6565b9050919050565b6000602082019050818103600083015261566d8161488c565b9050919050565b6000602082019050818103600083015261568d81614932565b9050919050565b600060208201905081810360008301526156ad81614972565b9050919050565b600060208201905081810360008301526156cd816149d8565b9050919050565b600060208201905081810360008301526156ed81614a3e565b9050919050565b6000602082019050818103600083015261570d81614b0a565b9050919050565b6000602082019050818103600083015261572d81614b4a565b9050919050565b6000602082019050818103600083015261574d81614bd6565b9050919050565b6000602082019050818103600083015261576d81614c3c565b9050919050565b6000602082019050818103600083015261578d81614d48565b9050919050565b600060208201905081810360008301526157ad81614dee565b9050919050565b600060208201905081810360008301526157ce8184614f20565b905092915050565b600060208201905081810360008301526157f0818461509a565b905092915050565b600060208201905061580d60008301846151a6565b92915050565b600061016082019050615829600083018e6151a6565b818103602083015261583b818d614418565b9050818103604083015261584f818c614418565b905061585e606083018b6151a6565b61586b608083018a6151a6565b61587860a08301896151a6565b61588560c08301886143d0565b81810360e08301526158978187614418565b90506158a76101008301866151a6565b6158b56101208301856151a6565b6158c36101408301846151a6565b9c9b505050505050505050505050565b60006060820190506158e860008301866151a6565b6158f560208301856151a6565b61590260408301846151a6565b949350505050565b6000604051905081810181811067ffffffffffffffff8211171561593157615930615d50565b5b8060405250919050565b600067ffffffffffffffff82111561595657615955615d50565b5b601f19601f8301169050602081019050919050565b6000819050602082019050919050565b600081519050919050565b600081519050919050565b600081519050919050565b6000602082019050919050565b600082825260208201905092915050565b600082825260208201905092915050565b600082825260208201905092915050565b600082825260208201905092915050565b600081905092915050565b6000615a0382615b8a565b9150615a0e83615b8a565b9250827fffffffffffffffffffffffffffffffffffffffffffffffffffffffffffffffff03821115615a4357615a42615c94565b5b828201905092915050565b6000615a5982615b8a565b9150615a6483615b8a565b925082615a7457615a73615cc3565b5b828204905092915050565b6000615a8a82615b8a565b9150615a9583615b8a565b9250817fffffffffffffffffffffffffffffffffffffffffffffffffffffffffffffffff0483118215151615615ace57615acd615c94565b5b828202905092915050565b6000615ae482615b8a565b9150615aef83615b8a565b925082821015615b0257615b01615c94565b5b828203905092915050565b6000615b1882615b6a565b9050919050565b60008115159050919050565b60007fffffffff0000000000000000000000000000000000000000000000000000000082169050919050565b6000819050615b6582615d90565b919050565b600073ffffffffffffffffffffffffffffffffffffffff82169050919050565b6000819050919050565b6000615b9f82615b57565b9050919050565b82818337600083830152505050565b60005b83811015615bd3578082015181840152602081019050615bb8565b83811115615be2576000848401525b50505050565b60006002820490506001821680615c0057607f821691505b60208210811415615c1457615c13615d21565b5b50919050565b6000615c2582615b8a565b91507fffffffffffffffffffffffffffffffffffffffffffffffffffffffffffffffff821415615c5857615c57615c94565b5b600182019050919050565b6000615c6e82615b8a565b9150615c7983615b8a565b925082615c8957615c88615cc3565b5b828206905092915050565b7f4e487b7100000000000000000000000000000000000000000000000000000000600052601160045260246000fd5b7f4e487b7100000000000000000000000000000000000000000000000000000000600052601260045260246000fd5b7f4e487b7100000000000000000000000000000000000000000000000000000000600052602160045260246000fd5b7f4e487b7100000000000000000000000000000000000000000000000000000000600052602260045260246000fd5b7f4e487b7100000000000000000000000000000000000000000000000000000000600052604160045260246000fd5b6000601f19601f8301169050919050565b60038110615da157615da0615cf2565b5b50565b615dad81615b0d565b8114615db857600080fd5b50565b615dc481615b1f565b8114615dcf57600080fd5b50565b615ddb81615b2b565b8114615de657600080fd5b50565b615df281615b8a565b8114615dfd57600080fd5b5056fe4865616c746820697320636f6d706c65746c7920726573746f7265642e20537461747320696e6372656173656420736c696768746c792e506c617965722061747461636b656420626f73732e204e657720626f73732068703a2025734142434445464748494a4b4c4d4e4f505152535455565758595a6162636465666768696a6b6c6d6e6f707172737475767778797a303132333435363738392b2f426f73732061747461636b656420706c617965722e204e657720706c617965722068703a2025730a4c6576656c20757020646f6e652e204e65656420257320585020666f72206e657874206c6576656c2e4d696e746564204e4654207769746820746f6b656e496420257320616e6420636861726163746572496e6465782025730a506c617965722077697468206368617261637465722025732069732061626f757420746f20726571756573742ea2646970667358221220f524d26abd98f15b17773701a3d090bb04e11728f40a3cb27b227aaf0e74d58164736f6c63430008000033446f6e6520696e697469616c697a696e67202573207769746820257320417267756d656e7473",
  "linkReferences": {},
  "deployedLinkReferences": {}
}